{
  "_format": "hh-sol-artifact-1",
  "contractName": "TokenExchange",
  "sourceName": "contracts/exchange.sol",
  "abi": [
    {
      "inputs": [],
      "stateMutability": "nonpayable",
      "type": "constructor"
    },
    {
      "anonymous": false,
      "inputs": [
        {
          "indexed": true,
          "internalType": "address",
          "name": "previousOwner",
          "type": "address"
        },
        {
          "indexed": true,
          "internalType": "address",
          "name": "newOwner",
          "type": "address"
        }
      ],
      "name": "OwnershipTransferred",
      "type": "event"
    },
    {
      "inputs": [
        {
          "internalType": "uint256",
          "name": "max_exchange_rate",
          "type": "uint256"
        },
        {
          "internalType": "uint256",
          "name": "min_exchange_rate",
          "type": "uint256"
        }
      ],
      "name": "addLiquidity",
      "outputs": [],
      "stateMutability": "payable",
      "type": "function"
    },
    {
      "inputs": [
        {
          "internalType": "uint256",
          "name": "amountTokens",
          "type": "uint256"
        }
      ],
      "name": "createPool",
      "outputs": [],
      "stateMutability": "payable",
      "type": "function"
    },
    {
      "inputs": [],
      "name": "exchange_name",
      "outputs": [
        {
          "internalType": "string",
          "name": "",
          "type": "string"
        }
      ],
      "stateMutability": "view",
      "type": "function"
    },
    {
      "inputs": [],
      "name": "getSwapFee",
      "outputs": [
        {
          "internalType": "uint256",
          "name": "",
          "type": "uint256"
        },
        {
          "internalType": "uint256",
          "name": "",
          "type": "uint256"
        }
      ],
      "stateMutability": "view",
      "type": "function"
    },
    {
      "inputs": [],
      "name": "owner",
      "outputs": [
        {
          "internalType": "address",
          "name": "",
          "type": "address"
        }
      ],
      "stateMutability": "view",
      "type": "function"
    },
    {
      "inputs": [
        {
          "internalType": "uint256",
          "name": "max_exchange_rate",
          "type": "uint256"
        },
        {
          "internalType": "uint256",
          "name": "min_exchange_rate",
          "type": "uint256"
        }
      ],
      "name": "removeAllLiquidity",
      "outputs": [],
      "stateMutability": "payable",
      "type": "function"
    },
    {
      "inputs": [
        {
          "internalType": "uint256",
          "name": "amountETH",
          "type": "uint256"
        },
        {
          "internalType": "uint256",
          "name": "max_exchange_rate",
          "type": "uint256"
        },
        {
          "internalType": "uint256",
          "name": "min_exchange_rate",
          "type": "uint256"
        }
      ],
      "name": "removeLiquidity",
      "outputs": [],
      "stateMutability": "payable",
      "type": "function"
    },
    {
      "inputs": [],
      "name": "renounceOwnership",
      "outputs": [],
      "stateMutability": "nonpayable",
      "type": "function"
    },
    {
      "inputs": [
        {
          "internalType": "uint256",
          "name": "max_exchange_rate",
          "type": "uint256"
        }
      ],
      "name": "swapETHForTokens",
      "outputs": [],
      "stateMutability": "payable",
      "type": "function"
    },
    {
      "inputs": [
        {
          "internalType": "uint256",
          "name": "amountTokens",
          "type": "uint256"
        },
        {
          "internalType": "uint256",
          "name": "max_exchange_rate",
          "type": "uint256"
        }
      ],
      "name": "swapTokensForETH",
      "outputs": [],
      "stateMutability": "payable",
      "type": "function"
    },
    {
      "inputs": [],
      "name": "token",
      "outputs": [
        {
          "internalType": "contract Token",
          "name": "",
          "type": "address"
        }
      ],
      "stateMutability": "view",
      "type": "function"
    },
    {
      "inputs": [
        {
          "internalType": "address",
          "name": "newOwner",
          "type": "address"
        }
      ],
      "name": "transferOwnership",
      "outputs": [],
      "stateMutability": "nonpayable",
      "type": "function"
    }
  ],
  "bytecode": "0x608060405260405180602001604052806000815250600190816200002491906200048d565b50735fbdb2315678afecb367f032d93f642f64180aa3600260006101000a81548173ffffffffffffffffffffffffffffffffffffffff021916908373ffffffffffffffffffffffffffffffffffffffff160217905550600260009054906101000a900473ffffffffffffffffffffffffffffffffffffffff16600360006101000a81548173ffffffffffffffffffffffffffffffffffffffff021916908373ffffffffffffffffffffffffffffffffffffffff16021790555060006004556000600555600060065560006007556000600a556003600b556064600c55620186a0600e55670de0b6b3a7640000600f553480156200012057600080fd5b5062000141620001356200014760201b60201c565b6200014f60201b60201c565b62000574565b600033905090565b60008060009054906101000a900473ffffffffffffffffffffffffffffffffffffffff169050816000806101000a81548173ffffffffffffffffffffffffffffffffffffffff021916908373ffffffffffffffffffffffffffffffffffffffff1602179055508173ffffffffffffffffffffffffffffffffffffffff168173ffffffffffffffffffffffffffffffffffffffff167f8be0079c531659141344cd1fd0a4f28419497f9722a3daafe3b4186f6b6457e060405160405180910390a35050565b600081519050919050565b7f4e487b7100000000000000000000000000000000000000000000000000000000600052604160045260246000fd5b7f4e487b7100000000000000000000000000000000000000000000000000000000600052602260045260246000fd5b600060028204905060018216806200029557607f821691505b602082108103620002ab57620002aa6200024d565b5b50919050565b60008190508160005260206000209050919050565b60006020601f8301049050919050565b600082821b905092915050565b600060088302620003157fffffffffffffffffffffffffffffffffffffffffffffffffffffffffffffffff82620002d6565b620003218683620002d6565b95508019841693508086168417925050509392505050565b6000819050919050565b6000819050919050565b60006200036e62000368620003628462000339565b62000343565b62000339565b9050919050565b6000819050919050565b6200038a836200034d565b620003a2620003998262000375565b848454620002e3565b825550505050565b600090565b620003b9620003aa565b620003c68184846200037f565b505050565b5b81811015620003ee57620003e2600082620003af565b600181019050620003cc565b5050565b601f8211156200043d576200040781620002b1565b6200041284620002c6565b8101602085101562000422578190505b6200043a6200043185620002c6565b830182620003cb565b50505b505050565b600082821c905092915050565b6000620004626000198460080262000442565b1980831691505092915050565b60006200047d83836200044f565b9150826002028217905092915050565b620004988262000213565b67ffffffffffffffff811115620004b457620004b36200021e565b5b620004c082546200027c565b620004cd828285620003f2565b600060209050601f831160018114620005055760008415620004f0578287015190505b620004fc85826200046f565b8655506200056c565b601f1984166200051586620002b1565b60005b828110156200053f5784890151825560018201915060208501945060208101905062000518565b868310156200055f57848901516200055b601f8916826200044f565b8355505b6001600288020188555050505b505050505050565b61249380620005846000396000f3fe6080604052600436106100a75760003560e01c80639cd441da116100645780639cd441da1461015e578063a22280a61461017a578063d4cadf6814610196578063f2fde38b146101c2578063f694f7d1146101eb578063fc0c546a14610216576100a7565b80632eab2841146100ac57806358ad6de4146100c8578063715018a6146100e45780638259e6a0146100fb578063857620e1146101175780638da5cb5b14610133575b600080fd5b6100c660048036038101906100c191906116a8565b610241565b005b6100e260048036038101906100dd91906116d5565b610457565b005b3480156100f057600080fd5b506100f96104cb565b005b610115600480360381019061011091906116a8565b6104df565b005b610131600480360381019061012c9190611715565b61088f565b005b34801561013f57600080fd5b50610148610cc3565b60405161015591906117a9565b60405180910390f35b610178600480360381019061017391906116d5565b610cec565b005b610194600480360381019061018f91906116d5565b61101b565b005b3480156101a257600080fd5b506101ab61131b565b6040516101b99291906117d3565b60405180910390f35b3480156101ce57600080fd5b506101e960048036038101906101e49190611828565b61132c565b005b3480156101f757600080fd5b506102006113af565b60405161020d91906118e5565b60405180910390f35b34801561022257600080fd5b5061022b61143d565b6040516102389190611966565b60405180910390f35b6000600c54600b543461025491906119b0565b61025e9190611a21565b346102699190611a52565b905060008160055461027b9190611a86565b9050600081600d5461028d9190611a21565b905060008160045461029f9190611a52565b905084600f546004546102b291906119b0565b600e546005546102c291906119b0565b6102cc9190611a21565b1061030c576040517f08c379a000000000000000000000000000000000000000000000000000000000815260040161030390611b06565b60405180910390fd5b600160045461031b9190611a52565b81111561035d576040517f08c379a000000000000000000000000000000000000000000000000000000000815260040161035490611b98565b60405180910390fd5b82600581905550816004819055506000600360009054906101000a900473ffffffffffffffffffffffffffffffffffffffff1673ffffffffffffffffffffffffffffffffffffffff1663a9059cbb33846040518363ffffffff1660e01b81526004016103ca929190611bb8565b6020604051808303816000875af11580156103e9573d6000803e3d6000fd5b505050506040513d601f19601f8201168201806040525081019061040d9190611c19565b90508061044f576040517f08c379a000000000000000000000000000000000000000000000000000000000815260040161044690611c92565b60405180910390fd5b505050505050565b6000600860003373ffffffffffffffffffffffffffffffffffffffff1673ffffffffffffffffffffffffffffffffffffffff1681526020019081526020016000205490506000600a54600554836104ae91906119b0565b6104b89190611a21565b90506104c581858561088f565b50505050565b6104d3611463565b6104dd60006114e1565b565b6104e7611463565b60006004541461052c576040517f08c379a000000000000000000000000000000000000000000000000000000000815260040161052390611cfe565b60405180910390fd5b600060055414610571576040517f08c379a000000000000000000000000000000000000000000000000000000000815260040161056890611d6a565b60405180910390fd5b600034116105b4576040517f08c379a00000000000000000000000000000000000000000000000000000000081526004016105ab90611dd6565b60405180910390fd5b6000600360009054906101000a900473ffffffffffffffffffffffffffffffffffffffff1673ffffffffffffffffffffffffffffffffffffffff166370a08231336040518263ffffffff1660e01b815260040161061191906117a9565b602060405180830381865afa15801561062e573d6000803e3d6000fd5b505050506040513d601f19601f820116820180604052508101906106529190611e0b565b905080821115610697576040517f08c379a000000000000000000000000000000000000000000000000000000000815260040161068e90611eaa565b60405180910390fd5b600082116106da576040517f08c379a00000000000000000000000000000000000000000000000000000000081526004016106d190611f16565b60405180910390fd5b600360009054906101000a900473ffffffffffffffffffffffffffffffffffffffff1673ffffffffffffffffffffffffffffffffffffffff166323b872dd3330856040518463ffffffff1660e01b815260040161073993929190611f36565b6020604051808303816000875af1158015610758573d6000803e3d6000fd5b505050506040513d601f19601f8201168201806040525081019061077c9190611c19565b50600360009054906101000a900473ffffffffffffffffffffffffffffffffffffffff1673ffffffffffffffffffffffffffffffffffffffff166370a08231306040518263ffffffff1660e01b81526004016107d891906117a9565b602060405180830381865afa1580156107f5573d6000803e3d6000fd5b505050506040513d601f19601f820116820180604052508101906108199190611e0b565b6004819055503460058190555060055460045461083691906119b0565b600d81905550620186a0600a819055506064600860003373ffffffffffffffffffffffffffffffffffffffff1673ffffffffffffffffffffffffffffffffffffffff168152602001908152602001600020819055505050565b600160055461089e9190611a52565b8311156108e0576040517f08c379a00000000000000000000000000000000000000000000000000000000081526004016108d790611fdf565b60405180910390fd5b60006108eb846115a5565b90506000600554600a548661090091906119b0565b61090a9190611a21565b905080600a600082825461091e9190611a52565b9250508190555080600860003373ffffffffffffffffffffffffffffffffffffffff1673ffffffffffffffffffffffffffffffffffffffff1681526020019081526020016000205410156109a7576040517f08c379a000000000000000000000000000000000000000000000000000000000815260040161099e90612097565b60405180910390fd5b6000600554600f54600e546004546109bf91906119b0565b6109c991906119b0565b6109d39190611a21565b905080841080156109e357508484105b610a22576040517f08c379a0000000000000000000000000000000000000000000000000000000008152600401610a1990611b06565b60405180910390fd5b600060055447610a329190611a52565b90506000600454600360009054906101000a900473ffffffffffffffffffffffffffffffffffffffff1673ffffffffffffffffffffffffffffffffffffffff166370a08231306040518263ffffffff1660e01b8152600401610a9491906117a9565b602060405180830381865afa158015610ab1573d6000803e3d6000fd5b505050506040513d601f19601f82011682018060405250810190610ad59190611e0b565b610adf9190611a52565b90506000600a548584610af291906119b0565b610afc9190611a21565b90506000600a548684610b0f91906119b0565b610b199190611a21565b905085600860003373ffffffffffffffffffffffffffffffffffffffff1673ffffffffffffffffffffffffffffffffffffffff1681526020019081526020016000206000828254610b6a9190611a52565b925050819055508960056000828254610b839190611a52565b925050819055508660046000828254610b9c9190611a52565b92505081905550600454600554610bb391906119b0565b600d81905550600360009054906101000a900473ffffffffffffffffffffffffffffffffffffffff1673ffffffffffffffffffffffffffffffffffffffff1663a9059cbb33838a610c049190611a86565b6040518363ffffffff1660e01b8152600401610c21929190611bb8565b6020604051808303816000875af1158015610c40573d6000803e3d6000fd5b505050506040513d601f19601f82011682018060405250810190610c649190611c19565b503373ffffffffffffffffffffffffffffffffffffffff166108fc838c610c8b9190611a86565b9081150290604051600060405180830381858888f19350505050158015610cb6573d6000803e3d6000fd5b5050505050505050505050565b60008060009054906101000a900473ffffffffffffffffffffffffffffffffffffffff16905090565b60003411610d2f576040517f08c379a0000000000000000000000000000000000000000000000000000000008152600401610d2690612103565b60405180910390fd5b6000610d3a346115a5565b90506000600360009054906101000a900473ffffffffffffffffffffffffffffffffffffffff1673ffffffffffffffffffffffffffffffffffffffff166370a08231336040518263ffffffff1660e01b8152600401610d9991906117a9565b602060405180830381865afa158015610db6573d6000803e3d6000fd5b505050506040513d601f19601f82011682018060405250810190610dda9190611e0b565b905081811015610e1f576040517f08c379a0000000000000000000000000000000000000000000000000000000008152600401610e16906121bb565b60405180910390fd5b6000600554600f54600e54600454610e3791906119b0565b610e4191906119b0565b610e4b9190611a21565b90508084108015610e5b57508484105b610e9a576040517f08c379a0000000000000000000000000000000000000000000000000000000008152600401610e9190611b06565b60405180910390fd5b6000600554600a5434610ead91906119b0565b610eb79190611a21565b905080600a6000828254610ecb9190611a86565b9250508190555080600860003373ffffffffffffffffffffffffffffffffffffffff1673ffffffffffffffffffffffffffffffffffffffff1681526020019081526020016000206000828254610f219190611a86565b925050819055503460056000828254610f3a9190611a86565b925050819055508360046000828254610f539190611a86565b92505081905550600454600554610f6a91906119b0565b600d81905550600360009054906101000a900473ffffffffffffffffffffffffffffffffffffffff1673ffffffffffffffffffffffffffffffffffffffff166323b872dd3330876040518463ffffffff1660e01b8152600401610fcf93929190611f36565b6020604051808303816000875af1158015610fee573d6000803e3d6000fd5b505050506040513d601f19601f820116820180604052508101906110129190611c19565b50505050505050565b6000600360009054906101000a900473ffffffffffffffffffffffffffffffffffffffff1673ffffffffffffffffffffffffffffffffffffffff166370a08231336040518263ffffffff1660e01b815260040161107891906117a9565b602060405180830381865afa158015611095573d6000803e3d6000fd5b505050506040513d601f19601f820116820180604052508101906110b99190611e0b565b9050808311156110fe576040517f08c379a00000000000000000000000000000000000000000000000000000000081526004016110f59061224d565b60405180910390fd5b6000600c54600b548561111191906119b0565b61111b9190611a21565b846111269190611a52565b90506000816004546111389190611a86565b9050600081600d5461114a9190611a21565b905060008160055461115c9190611a52565b905085600554600f54600e5460045461117591906119b0565b61117f91906119b0565b6111899190611a21565b106111c9576040517f08c379a00000000000000000000000000000000000000000000000000000000081526004016111c090611b06565b60405180910390fd5b60016005546111d89190611a52565b81111561121a576040517f08c379a0000000000000000000000000000000000000000000000000000000008152600401611211906122df565b60405180910390fd5b81600581905550826004819055503373ffffffffffffffffffffffffffffffffffffffff166108fc829081150290604051600060405180830381858888f1935050505015801561126e573d6000803e3d6000fd5b50600360009054906101000a900473ffffffffffffffffffffffffffffffffffffffff1673ffffffffffffffffffffffffffffffffffffffff166323b872dd33308a6040518463ffffffff1660e01b81526004016112ce93929190611f36565b6020604051808303816000875af11580156112ed573d6000803e3d6000fd5b505050506040513d601f19601f820116820180604052508101906113119190611c19565b5050505050505050565b600080600b54600c54915091509091565b611334611463565b600073ffffffffffffffffffffffffffffffffffffffff168173ffffffffffffffffffffffffffffffffffffffff16036113a3576040517f08c379a000000000000000000000000000000000000000000000000000000000815260040161139a90612371565b60405180910390fd5b6113ac816114e1565b50565b600180546113bc906123c0565b80601f01602080910402602001604051908101604052809291908181526020018280546113e8906123c0565b80156114355780601f1061140a57610100808354040283529160200191611435565b820191906000526020600020905b81548152906001019060200180831161141857829003601f168201915b505050505081565b600360009054906101000a900473ffffffffffffffffffffffffffffffffffffffff1681565b61146b611665565b73ffffffffffffffffffffffffffffffffffffffff16611489610cc3565b73ffffffffffffffffffffffffffffffffffffffff16146114df576040517f08c379a00000000000000000000000000000000000000000000000000000000081526004016114d69061243d565b60405180910390fd5b565b60008060009054906101000a900473ffffffffffffffffffffffffffffffffffffffff169050816000806101000a81548173ffffffffffffffffffffffffffffffffffffffff021916908373ffffffffffffffffffffffffffffffffffffffff1602179055508173ffffffffffffffffffffffffffffffffffffffff168173ffffffffffffffffffffffffffffffffffffffff167f8be0079c531659141344cd1fd0a4f28419497f9722a3daafe3b4186f6b6457e060405160405180910390a35050565b6000804783600360009054906101000a900473ffffffffffffffffffffffffffffffffffffffff1673ffffffffffffffffffffffffffffffffffffffff166370a08231306040518263ffffffff1660e01b815260040161160591906117a9565b602060405180830381865afa158015611622573d6000803e3d6000fd5b505050506040513d601f19601f820116820180604052508101906116469190611e0b565b61165091906119b0565b61165a9190611a21565b905080915050919050565b600033905090565b600080fd5b6000819050919050565b61168581611672565b811461169057600080fd5b50565b6000813590506116a28161167c565b92915050565b6000602082840312156116be576116bd61166d565b5b60006116cc84828501611693565b91505092915050565b600080604083850312156116ec576116eb61166d565b5b60006116fa85828601611693565b925050602061170b85828601611693565b9150509250929050565b60008060006060848603121561172e5761172d61166d565b5b600061173c86828701611693565b935050602061174d86828701611693565b925050604061175e86828701611693565b9150509250925092565b600073ffffffffffffffffffffffffffffffffffffffff82169050919050565b600061179382611768565b9050919050565b6117a381611788565b82525050565b60006020820190506117be600083018461179a565b92915050565b6117cd81611672565b82525050565b60006040820190506117e860008301856117c4565b6117f560208301846117c4565b9392505050565b61180581611788565b811461181057600080fd5b50565b600081359050611822816117fc565b92915050565b60006020828403121561183e5761183d61166d565b5b600061184c84828501611813565b91505092915050565b600081519050919050565b600082825260208201905092915050565b60005b8381101561188f578082015181840152602081019050611874565b60008484015250505050565b6000601f19601f8301169050919050565b60006118b782611855565b6118c18185611860565b93506118d1818560208601611871565b6118da8161189b565b840191505092915050565b600060208201905081810360008301526118ff81846118ac565b905092915050565b6000819050919050565b600061192c61192761192284611768565b611907565b611768565b9050919050565b600061193e82611911565b9050919050565b600061195082611933565b9050919050565b61196081611945565b82525050565b600060208201905061197b6000830184611957565b92915050565b7f4e487b7100000000000000000000000000000000000000000000000000000000600052601160045260246000fd5b60006119bb82611672565b91506119c683611672565b92508282026119d481611672565b915082820484148315176119eb576119ea611981565b5b5092915050565b7f4e487b7100000000000000000000000000000000000000000000000000000000600052601260045260246000fd5b6000611a2c82611672565b9150611a3783611672565b925082611a4757611a466119f2565b5b828204905092915050565b6000611a5d82611672565b9150611a6883611672565b9250828203905081811115611a8057611a7f611981565b5b92915050565b6000611a9182611672565b9150611a9c83611672565b9250828201905080821115611ab457611ab3611981565b5b92915050565b7f4661696c65642064756520746f20736c69707061676500000000000000000000600082015250565b6000611af0601683611860565b9150611afb82611aba565b602082019050919050565b60006020820190508181036000830152611b1f81611ae3565b9050919050565b7f53776170206661696c65642064756520746f2070726576656e74696f6e206f6660008201527f20546f6b656e20737570706c792064697070696e672062656c6f772031000000602082015250565b6000611b82603d83611860565b9150611b8d82611b26565b604082019050919050565b60006020820190508181036000830152611bb181611b75565b9050919050565b6000604082019050611bcd600083018561179a565b611bda60208301846117c4565b9392505050565b60008115159050919050565b611bf681611be1565b8114611c0157600080fd5b50565b600081519050611c1381611bed565b92915050565b600060208284031215611c2f57611c2e61166d565b5b6000611c3d84828501611c04565b91505092915050565b7f546f6b656e207472616e73666572206661696c65640000000000000000000000600082015250565b6000611c7c601583611860565b9150611c8782611c46565b602082019050919050565b60006020820190508181036000830152611cab81611c6f565b9050919050565b7f546f6b656e20726573657276657320776173206e6f7420300000000000000000600082015250565b6000611ce8601883611860565b9150611cf382611cb2565b602082019050919050565b60006020820190508181036000830152611d1781611cdb565b9050919050565b7f45544820726573657276657320776173206e6f7420302e000000000000000000600082015250565b6000611d54601783611860565b9150611d5f82611d1e565b602082019050919050565b60006020820190508181036000830152611d8381611d47565b9050919050565b7f4e6565642065746820746f2063726561746520706f6f6c2e0000000000000000600082015250565b6000611dc0601883611860565b9150611dcb82611d8a565b602082019050919050565b60006020820190508181036000830152611def81611db3565b9050919050565b600081519050611e058161167c565b92915050565b600060208284031215611e2157611e2061166d565b5b6000611e2f84828501611df6565b91505092915050565b7f4e6f74206861766520656e6f75676820746f6b656e7320746f2063726561746560008201527f2074686520706f6f6c0000000000000000000000000000000000000000000000602082015250565b6000611e94602983611860565b9150611e9f82611e38565b604082019050919050565b60006020820190508181036000830152611ec381611e87565b9050919050565b7f4e65656420746f6b656e7320746f2063726561746520706f6f6c2e0000000000600082015250565b6000611f00601b83611860565b9150611f0b82611eca565b602082019050919050565b60006020820190508181036000830152611f2f81611ef3565b9050919050565b6000606082019050611f4b600083018661179a565b611f58602083018561179a565b611f6560408301846117c4565b949350505050565b7f43616e6e6f742072656d6f7665206d6f7265206c69717569646974792074686160008201527f6e20697320696e2074686520706f6f6c00000000000000000000000000000000602082015250565b6000611fc9603083611860565b9150611fd482611f6d565b604082019050919050565b60006020820190508181036000830152611ff881611fbc565b9050919050565b7f4c5020646f6573206e6f74206861766520656e6f75676820736861726573207460008201527f6f2072656d6f76652074686520696e70757474656420616d6f756e74206f662060208201527f6c69717569646974792e00000000000000000000000000000000000000000000604082015250565b6000612081604a83611860565b915061208c82611fff565b606082019050919050565b600060208201905081810360008301526120b081612074565b9050919050565b7f4d7573742070726f7669646520706f7369746976652076616c75650000000000600082015250565b60006120ed601b83611860565b91506120f8826120b7565b602082019050919050565b6000602082019050818103600083015261211c816120e0565b9050919050565b7f4c5020646f657320646f6573206e6f74206861766520656e6f756768206f662060008201527f746f6b656e20746f206164642074686520696e70757474656420616d6f756e7460208201527f206f66206c69717569646974792e000000000000000000000000000000000000604082015250565b60006121a5604e83611860565b91506121b082612123565b606082019050919050565b600060208201905081810360008301526121d481612198565b9050919050565b7f43616c6c657220646f6573206e6f74206861766520656e6f75676820746f6b6560008201527f6e7320746f206d616b6520737761700000000000000000000000000000000000602082015250565b6000612237602f83611860565b9150612242826121db565b604082019050919050565b600060208201905081810360008301526122668161222a565b9050919050565b7f53776170206661696c65642064756520746f2070726576656e74696f6e206f6660008201527f2045746820737570706c792064697070696e672062656c6f7720310000000000602082015250565b60006122c9603b83611860565b91506122d48261226d565b604082019050919050565b600060208201905081810360008301526122f8816122bc565b9050919050565b7f4f776e61626c653a206e6577206f776e657220697320746865207a65726f206160008201527f6464726573730000000000000000000000000000000000000000000000000000602082015250565b600061235b602683611860565b9150612366826122ff565b604082019050919050565b6000602082019050818103600083015261238a8161234e565b9050919050565b7f4e487b7100000000000000000000000000000000000000000000000000000000600052602260045260246000fd5b600060028204905060018216806123d857607f821691505b6020821081036123eb576123ea612391565b5b50919050565b7f4f776e61626c653a2063616c6c6572206973206e6f7420746865206f776e6572600082015250565b6000612427602083611860565b9150612432826123f1565b602082019050919050565b600060208201905081810360008301526124568161241a565b905091905056fea26469706673582212205808d1f238fd094a8b4b0e572d0555d7e5b94abb5d4220085b1b3dc836e377f464736f6c63430008110033",
  "linkReferences": {},
  "deployedLinkReferences": {}
}