{"contracts/exchange.sol":{"TokenExchange":{"abi":[{"inputs":[],"stateMutability":"nonpayable","type":"constructor"},{"anonymous":false,"inputs":[{"indexed":true,"internalType":"address","name":"previousOwner","type":"address"},{"indexed":true,"internalType":"address","name":"newOwner","type":"address"}],"name":"OwnershipTransferred","type":"event"},{"inputs":[{"internalType":"uint256","name":"max_exchange_rate","type":"uint256"},{"internalType":"uint256","name":"min_exchange_rate","type":"uint256"}],"name":"addLiquidity","outputs":[],"stateMutability":"payable","type":"function"},{"inputs":[{"internalType":"uint256","name":"amountTokens","type":"uint256"}],"name":"createPool","outputs":[],"stateMutability":"payable","type":"function"},{"inputs":[],"name":"exchange_name","outputs":[{"internalType":"string","name":"","type":"string"}],"stateMutability":"view","type":"function"},{"inputs":[],"name":"getSwapFee","outputs":[{"internalType":"uint256","name":"","type":"uint256"},{"internalType":"uint256","name":"","type":"uint256"}],"stateMutability":"view","type":"function"},{"inputs":[],"name":"owner","outputs":[{"internalType":"address","name":"","type":"address"}],"stateMutability":"view","type":"function"},{"inputs":[{"internalType":"uint256","name":"max_exchange_rate","type":"uint256"},{"internalType":"uint256","name":"min_exchange_rate","type":"uint256"}],"name":"removeAllLiquidity","outputs":[],"stateMutability":"payable","type":"function"},{"inputs":[{"internalType":"uint256","name":"amountETH","type":"uint256"},{"internalType":"uint256","name":"max_exchange_rate","type":"uint256"},{"internalType":"uint256","name":"min_exchange_rate","type":"uint256"}],"name":"removeLiquidity","outputs":[],"stateMutability":"payable","type":"function"},{"inputs":[],"name":"renounceOwnership","outputs":[],"stateMutability":"nonpayable","type":"function"},{"inputs":[{"internalType":"uint256","name":"max_exchange_rate","type":"uint256"}],"name":"swapETHForTokens","outputs":[],"stateMutability":"payable","type":"function"},{"inputs":[{"internalType":"uint256","name":"amountTokens","type":"uint256"},{"internalType":"uint256","name":"max_exchange_rate","type":"uint256"}],"name":"swapTokensForETH","outputs":[],"stateMutability":"payable","type":"function"},{"inputs":[],"name":"token","outputs":[{"internalType":"contract Token","name":"","type":"address"}],"stateMutability":"view","type":"function"},{"inputs":[{"internalType":"address","name":"newOwner","type":"address"}],"name":"transferOwnership","outputs":[],"stateMutability":"nonpayable","type":"function"}],"evm":{"bytecode":{"linkReferences":{},"object":"608060405260405180602001604052806000815250600190816200002491906200048d565b50735fbdb2315678afecb367f032d93f642f64180aa3600260006101000a81548173ffffffffffffffffffffffffffffffffffffffff021916908373ffffffffffffffffffffffffffffffffffffffff160217905550600260009054906101000a900473ffffffffffffffffffffffffffffffffffffffff16600360006101000a81548173ffffffffffffffffffffffffffffffffffffffff021916908373ffffffffffffffffffffffffffffffffffffffff16021790555060006004556000600555600060065560006007556000600a556003600b556064600c55620186a0600e55670de0b6b3a7640000600f553480156200012057600080fd5b5062000141620001356200014760201b60201c565b6200014f60201b60201c565b62000574565b600033905090565b60008060009054906101000a900473ffffffffffffffffffffffffffffffffffffffff169050816000806101000a81548173ffffffffffffffffffffffffffffffffffffffff021916908373ffffffffffffffffffffffffffffffffffffffff1602179055508173ffffffffffffffffffffffffffffffffffffffff168173ffffffffffffffffffffffffffffffffffffffff167f8be0079c531659141344cd1fd0a4f28419497f9722a3daafe3b4186f6b6457e060405160405180910390a35050565b600081519050919050565b7f4e487b7100000000000000000000000000000000000000000000000000000000600052604160045260246000fd5b7f4e487b7100000000000000000000000000000000000000000000000000000000600052602260045260246000fd5b600060028204905060018216806200029557607f821691505b602082108103620002ab57620002aa6200024d565b5b50919050565b60008190508160005260206000209050919050565b60006020601f8301049050919050565b600082821b905092915050565b600060088302620003157fffffffffffffffffffffffffffffffffffffffffffffffffffffffffffffffff82620002d6565b620003218683620002d6565b95508019841693508086168417925050509392505050565b6000819050919050565b6000819050919050565b60006200036e62000368620003628462000339565b62000343565b62000339565b9050919050565b6000819050919050565b6200038a836200034d565b620003a2620003998262000375565b848454620002e3565b825550505050565b600090565b620003b9620003aa565b620003c68184846200037f565b505050565b5b81811015620003ee57620003e2600082620003af565b600181019050620003cc565b5050565b601f8211156200043d576200040781620002b1565b6200041284620002c6565b8101602085101562000422578190505b6200043a6200043185620002c6565b830182620003cb565b50505b505050565b600082821c905092915050565b6000620004626000198460080262000442565b1980831691505092915050565b60006200047d83836200044f565b9150826002028217905092915050565b620004988262000213565b67ffffffffffffffff811115620004b457620004b36200021e565b5b620004c082546200027c565b620004cd828285620003f2565b600060209050601f831160018114620005055760008415620004f0578287015190505b620004fc85826200046f565b8655506200056c565b601f1984166200051586620002b1565b60005b828110156200053f5784890151825560018201915060208501945060208101905062000518565b868310156200055f57848901516200055b601f8916826200044f565b8355505b6001600288020188555050505b505050505050565b61294f80620005846000396000f3fe6080604052600436106100a75760003560e01c80639cd441da116100645780639cd441da1461015e578063a22280a61461017a578063d4cadf6814610196578063f2fde38b146101c2578063f694f7d1146101eb578063fc0c546a14610216576100a7565b80632eab2841146100ac57806358ad6de4146100c8578063715018a6146100e45780638259e6a0146100fb578063857620e1146101175780638da5cb5b14610133575b600080fd5b6100c660048036038101906100c191906119c0565b610241565b005b6100e260048036038101906100dd91906119ed565b6104d7565b005b3480156100f057600080fd5b506100f961054b565b005b610115600480360381019061011091906119c0565b61055f565b005b610131600480360381019061012c9190611a2d565b61090f565b005b34801561013f57600080fd5b50610148610eb4565b6040516101559190611ac1565b60405180910390f35b610178600480360381019061017391906119ed565b610edd565b005b610194600480360381019061018f91906119ed565b61130c565b005b3480156101a257600080fd5b506101ab6116f3565b6040516101b9929190611aeb565b60405180910390f35b3480156101ce57600080fd5b506101e960048036038101906101e49190611b40565b611704565b005b3480156101f757600080fd5b50610200611787565b60405161020d9190611bfd565b60405180910390f35b34801561022257600080fd5b5061022b611815565b6040516102389190611c7e565b60405180910390f35b60003411610284576040517f08c379a000000000000000000000000000000000000000000000000000000000815260040161027b90611ce5565b60405180910390fd5b6000346005546102949190611d34565b600454346102a29190611d68565b6102ac9190611dd9565b90508134600f54600e54846102c19190611d68565b6102cb9190611d68565b6102d59190611dd9565b10610315576040517f08c379a000000000000000000000000000000000000000000000000000000000815260040161030c90611e56565b60405180910390fd5b60016004546103249190611e76565b811115610366576040517f08c379a000000000000000000000000000000000000000000000000000000000815260040161035d90611f1c565b60405180910390fd5b6000600c54600b54346103799190611d68565b6103839190611dd9565b3461038e9190611e76565b90506000600c5483600b546103a39190611d68565b6103ad9190611dd9565b836103b89190611e76565b905080600460008282546103cc9190611e76565b9250508190555081600560008282546103e59190611d34565b925050819055506000600360009054906101000a900473ffffffffffffffffffffffffffffffffffffffff1673ffffffffffffffffffffffffffffffffffffffff1663a9059cbb33846040518363ffffffff1660e01b815260040161044b929190611f3c565b6020604051808303816000875af115801561046a573d6000803e3d6000fd5b505050506040513d601f19601f8201168201806040525081019061048e9190611f9d565b9050806104d0576040517f08c379a00000000000000000000000000000000000000000000000000000000081526004016104c790612016565b60405180910390fd5b5050505050565b6000600860003373ffffffffffffffffffffffffffffffffffffffff1673ffffffffffffffffffffffffffffffffffffffff1681526020019081526020016000205490506000600a546005548361052e9190611d68565b6105389190611dd9565b905061054581858561090f565b50505050565b61055361183b565b61055d60006118b9565b565b61056761183b565b6000600454146105ac576040517f08c379a00000000000000000000000000000000000000000000000000000000081526004016105a390612082565b60405180910390fd5b6000600554146105f1576040517f08c379a00000000000000000000000000000000000000000000000000000000081526004016105e8906120ee565b60405180910390fd5b60003411610634576040517f08c379a000000000000000000000000000000000000000000000000000000000815260040161062b9061215a565b60405180910390fd5b6000600360009054906101000a900473ffffffffffffffffffffffffffffffffffffffff1673ffffffffffffffffffffffffffffffffffffffff166370a08231336040518263ffffffff1660e01b81526004016106919190611ac1565b602060405180830381865afa1580156106ae573d6000803e3d6000fd5b505050506040513d601f19601f820116820180604052508101906106d2919061218f565b905080821115610717576040517f08c379a000000000000000000000000000000000000000000000000000000000815260040161070e9061222e565b60405180910390fd5b6000821161075a576040517f08c379a00000000000000000000000000000000000000000000000000000000081526004016107519061229a565b60405180910390fd5b600360009054906101000a900473ffffffffffffffffffffffffffffffffffffffff1673ffffffffffffffffffffffffffffffffffffffff166323b872dd3330856040518463ffffffff1660e01b81526004016107b9939291906122ba565b6020604051808303816000875af11580156107d8573d6000803e3d6000fd5b505050506040513d601f19601f820116820180604052508101906107fc9190611f9d565b50600360009054906101000a900473ffffffffffffffffffffffffffffffffffffffff1673ffffffffffffffffffffffffffffffffffffffff166370a08231306040518263ffffffff1660e01b81526004016108589190611ac1565b602060405180830381865afa158015610875573d6000803e3d6000fd5b505050506040513d601f19601f82011682018060405250810190610899919061218f565b600481905550346005819055506005546004546108b69190611d68565b600d81905550620186a0600a819055506064600860003373ffffffffffffffffffffffffffffffffffffffff1673ffffffffffffffffffffffffffffffffffffffff168152602001908152602001600020819055505050565b600160055461091e9190611e76565b831115610960576040517f08c379a000000000000000000000000000000000000000000000000000000000815260040161095790612363565b60405180910390fd5b6000600554600a54856005546109769190611e76565b6109809190611d68565b61098a9190611dd9565b905060008460055461099c9190611e76565b905060008183876109ad9190611d68565b6109b79190611dd9565b90506000600554476109c99190611e76565b90506000600454600360009054906101000a900473ffffffffffffffffffffffffffffffffffffffff1673ffffffffffffffffffffffffffffffffffffffff166370a08231306040518263ffffffff1660e01b8152600401610a2b9190611ac1565b602060405180830381865afa158015610a48573d6000803e3d6000fd5b505050506040513d601f19601f82011682018060405250810190610a6c919061218f565b610a769190611e76565b905060006005546004548a610a8b9190611d68565b610a959190611dd9565b90506000600e54600554610aa99190611dd9565b600f54600454610ab99190611d68565b610ac39190611dd9565b9050878111610b07576040517f08c379a0000000000000000000000000000000000000000000000000000000008152600401610afe906123cf565b60405180910390fd5b888110610b49576040517f08c379a0000000000000000000000000000000000000000000000000000000008152600401610b409061243b565b60405180910390fd5b600454821115610b8e576040517f08c379a0000000000000000000000000000000000000000000000000000000008152600401610b85906124a7565b60405180910390fd5b8160046000828254610ba09190611e76565b925050819055508960056000828254610bb99190611e76565b92505081905550600033905060008173ffffffffffffffffffffffffffffffffffffffff16600a548789610bed9190611d68565b610bf79190611dd9565b8d610c029190611d34565b604051610c0e906124f8565b60006040518083038185875af1925050503d8060008114610c4b576040519150601f19603f3d011682016040523d82523d6000602084013e610c50565b606091505b5050905080610c94576040517f08c379a0000000000000000000000000000000000000000000000000000000008152600401610c8b90612559565b60405180910390fd5b6000600360009054906101000a900473ffffffffffffffffffffffffffffffffffffffff1673ffffffffffffffffffffffffffffffffffffffff1663a9059cbb33600a54898c610ce49190611d68565b610cee9190611dd9565b88610cf99190611d34565b6040518363ffffffff1660e01b8152600401610d16929190611f3c565b6020604051808303816000875af1158015610d35573d6000803e3d6000fd5b505050506040513d601f19601f82011682018060405250810190610d599190611f9d565b905080610d9b576040517f08c379a0000000000000000000000000000000000000000000000000000000008152600401610d9290612016565b60405180910390fd5b87600860003373ffffffffffffffffffffffffffffffffffffffff1673ffffffffffffffffffffffffffffffffffffffff1681526020019081526020016000206000828254610dea9190611e76565b92505081905550600360009054906101000a900473ffffffffffffffffffffffffffffffffffffffff1673ffffffffffffffffffffffffffffffffffffffff166370a08231306040518263ffffffff1660e01b8152600401610e4c9190611ac1565b602060405180830381865afa158015610e69573d6000803e3d6000fd5b505050506040513d601f19601f82011682018060405250810190610e8d919061218f565b47610e989190611d68565b600d8190555089600a8190555050505050505050505050505050565b60008060009054906101000a900473ffffffffffffffffffffffffffffffffffffffff16905090565b60003411610f20576040517f08c379a0000000000000000000000000000000000000000000000000000000008152600401610f17906125c5565b60405180910390fd5b6000600554600a5460055434610f369190611d34565b610f409190611d68565b610f4a9190611dd9565b9050600060055434610f5c9190611d34565b90506000818334610f6d9190611d68565b610f779190611dd9565b905080600860003373ffffffffffffffffffffffffffffffffffffffff1673ffffffffffffffffffffffffffffffffffffffff1681526020019081526020016000206000828254610fc89190611d34565b92505081905550600060055460045434610fe29190611d68565b610fec9190611dd9565b90506000600e5434610ffe9190611dd9565b600f548361100c9190611d68565b6110169190611dd9565b905085811161105a576040517f08c379a0000000000000000000000000000000000000000000000000000000008152600401611051906123cf565b60405180910390fd5b86811061109c576040517f08c379a00000000000000000000000000000000000000000000000000000000081526004016110939061243b565b60405180910390fd5b600360009054906101000a900473ffffffffffffffffffffffffffffffffffffffff1673ffffffffffffffffffffffffffffffffffffffff166370a08231336040518263ffffffff1660e01b81526004016110f79190611ac1565b602060405180830381865afa158015611114573d6000803e3d6000fd5b505050506040513d601f19601f82011682018060405250810190611138919061218f565b82111561117a576040517f08c379a000000000000000000000000000000000000000000000000000000000815260040161117190612631565b60405180910390fd5b816004600082825461118c9190611d34565b9250508190555034600560008282546111a59190611d34565b92505081905550600360009054906101000a900473ffffffffffffffffffffffffffffffffffffffff1673ffffffffffffffffffffffffffffffffffffffff166323b872dd3330856040518463ffffffff1660e01b815260040161120b939291906122ba565b6020604051808303816000875af115801561122a573d6000803e3d6000fd5b505050506040513d601f19601f8201168201806040525081019061124e9190611f9d565b5084600a81905550600360009054906101000a900473ffffffffffffffffffffffffffffffffffffffff1673ffffffffffffffffffffffffffffffffffffffff166370a08231306040518263ffffffff1660e01b81526004016112b19190611ac1565b602060405180830381865afa1580156112ce573d6000803e3d6000fd5b505050506040513d601f19601f820116820180604052508101906112f2919061218f565b476112fd9190611d68565b600d8190555050505050505050565b81600360009054906101000a900473ffffffffffffffffffffffffffffffffffffffff1673ffffffffffffffffffffffffffffffffffffffff166370a08231336040518263ffffffff1660e01b81526004016113689190611ac1565b602060405180830381865afa158015611385573d6000803e3d6000fd5b505050506040513d601f19601f820116820180604052508101906113a9919061218f565b10156113ea576040517f08c379a00000000000000000000000000000000000000000000000000000000081526004016113e1906126c3565b60405180910390fd5b6000826004546113fa9190611d34565b600554846114089190611d68565b6114129190611dd9565b90506000600c54600b54836114279190611d68565b6114319190611dd9565b8261143c9190611e76565b90506000600c54600b54866114519190611d68565b61145b9190611dd9565b856114669190611e76565b905083600f54600e548761147a9190611d68565b6114849190611d68565b8461148f9190611dd9565b106114cf576040517f08c379a00000000000000000000000000000000000000000000000000000000081526004016114c69061272f565b60405180910390fd5b60016005546114de9190611e76565b831115611520576040517f08c379a00000000000000000000000000000000000000000000000000000000081526004016115179061279b565b60405180910390fd5b80600460008282546115329190611d34565b92505081905550816005600082825461154b9190611e76565b92505081905550600033905060008173ffffffffffffffffffffffffffffffffffffffff168460405161157d906124f8565b60006040518083038185875af1925050503d80600081146115ba576040519150601f19603f3d011682016040523d82523d6000602084013e6115bf565b606091505b5050905080611603576040517f08c379a00000000000000000000000000000000000000000000000000000000081526004016115fa90612559565b60405180910390fd5b6000600360009054906101000a900473ffffffffffffffffffffffffffffffffffffffff1673ffffffffffffffffffffffffffffffffffffffff166323b872dd33308b6040518463ffffffff1660e01b8152600401611664939291906122ba565b6020604051808303816000875af1158015611683573d6000803e3d6000fd5b505050506040513d601f19601f820116820180604052508101906116a79190611f9d565b9050806116e9576040517f08c379a00000000000000000000000000000000000000000000000000000000081526004016116e090612016565b60405180910390fd5b5050505050505050565b600080600b54600c54915091509091565b61170c61183b565b600073ffffffffffffffffffffffffffffffffffffffff168173ffffffffffffffffffffffffffffffffffffffff160361177b576040517f08c379a00000000000000000000000000000000000000000000000000000000081526004016117729061282d565b60405180910390fd5b611784816118b9565b50565b600180546117949061287c565b80601f01602080910402602001604051908101604052809291908181526020018280546117c09061287c565b801561180d5780601f106117e25761010080835404028352916020019161180d565b820191906000526020600020905b8154815290600101906020018083116117f057829003601f168201915b505050505081565b600360009054906101000a900473ffffffffffffffffffffffffffffffffffffffff1681565b61184361197d565b73ffffffffffffffffffffffffffffffffffffffff16611861610eb4565b73ffffffffffffffffffffffffffffffffffffffff16146118b7576040517f08c379a00000000000000000000000000000000000000000000000000000000081526004016118ae906128f9565b60405180910390fd5b565b60008060009054906101000a900473ffffffffffffffffffffffffffffffffffffffff169050816000806101000a81548173ffffffffffffffffffffffffffffffffffffffff021916908373ffffffffffffffffffffffffffffffffffffffff1602179055508173ffffffffffffffffffffffffffffffffffffffff168173ffffffffffffffffffffffffffffffffffffffff167f8be0079c531659141344cd1fd0a4f28419497f9722a3daafe3b4186f6b6457e060405160405180910390a35050565b600033905090565b600080fd5b6000819050919050565b61199d8161198a565b81146119a857600080fd5b50565b6000813590506119ba81611994565b92915050565b6000602082840312156119d6576119d5611985565b5b60006119e4848285016119ab565b91505092915050565b60008060408385031215611a0457611a03611985565b5b6000611a12858286016119ab565b9250506020611a23858286016119ab565b9150509250929050565b600080600060608486031215611a4657611a45611985565b5b6000611a54868287016119ab565b9350506020611a65868287016119ab565b9250506040611a76868287016119ab565b9150509250925092565b600073ffffffffffffffffffffffffffffffffffffffff82169050919050565b6000611aab82611a80565b9050919050565b611abb81611aa0565b82525050565b6000602082019050611ad66000830184611ab2565b92915050565b611ae58161198a565b82525050565b6000604082019050611b006000830185611adc565b611b0d6020830184611adc565b9392505050565b611b1d81611aa0565b8114611b2857600080fd5b50565b600081359050611b3a81611b14565b92915050565b600060208284031215611b5657611b55611985565b5b6000611b6484828501611b2b565b91505092915050565b600081519050919050565b600082825260208201905092915050565b60005b83811015611ba7578082015181840152602081019050611b8c565b60008484015250505050565b6000601f19601f8301169050919050565b6000611bcf82611b6d565b611bd98185611b78565b9350611be9818560208601611b89565b611bf281611bb3565b840191505092915050565b60006020820190508181036000830152611c178184611bc4565b905092915050565b6000819050919050565b6000611c44611c3f611c3a84611a80565b611c1f565b611a80565b9050919050565b6000611c5682611c29565b9050919050565b6000611c6882611c4b565b9050919050565b611c7881611c5d565b82525050565b6000602082019050611c936000830184611c6f565b92915050565b7f6d7573742067697665206e6f6e7a65726f20616d6f756e740000000000000000600082015250565b6000611ccf601883611b78565b9150611cda82611c99565b602082019050919050565b60006020820190508181036000830152611cfe81611cc2565b9050919050565b7f4e487b7100000000000000000000000000000000000000000000000000000000600052601160045260246000fd5b6000611d3f8261198a565b9150611d4a8361198a565b9250828201905080821115611d6257611d61611d05565b5b92915050565b6000611d738261198a565b9150611d7e8361198a565b9250828202611d8c8161198a565b91508282048414831517611da357611da2611d05565b5b5092915050565b7f4e487b7100000000000000000000000000000000000000000000000000000000600052601260045260246000fd5b6000611de48261198a565b9150611def8361198a565b925082611dff57611dfe611daa565b5b828204905092915050565b7f6f766572206d61782065786368616e6765207261746500000000000000000000600082015250565b6000611e40601683611b78565b9150611e4b82611e0a565b602082019050919050565b60006020820190508181036000830152611e6f81611e33565b9050919050565b6000611e818261198a565b9150611e8c8361198a565b9250828203905081811115611ea457611ea3611d05565b5b92915050565b7f43616e27742074616b65206f757420616c6c20746f6b656e73206f7220656c7360008201527f6520776f756c64206e65656420696e66696e6974652065746800000000000000602082015250565b6000611f06603983611b78565b9150611f1182611eaa565b604082019050919050565b60006020820190508181036000830152611f3581611ef9565b9050919050565b6000604082019050611f516000830185611ab2565b611f5e6020830184611adc565b9392505050565b60008115159050919050565b611f7a81611f65565b8114611f8557600080fd5b50565b600081519050611f9781611f71565b92915050565b600060208284031215611fb357611fb2611985565b5b6000611fc184828501611f88565b91505092915050565b7f746f6b656e732077657265206e6f742073656e74000000000000000000000000600082015250565b6000612000601483611b78565b915061200b82611fca565b602082019050919050565b6000602082019050818103600083015261202f81611ff3565b9050919050565b7f546f6b656e20726573657276657320776173206e6f7420300000000000000000600082015250565b600061206c601883611b78565b915061207782612036565b602082019050919050565b6000602082019050818103600083015261209b8161205f565b9050919050565b7f45544820726573657276657320776173206e6f7420302e000000000000000000600082015250565b60006120d8601783611b78565b91506120e3826120a2565b602082019050919050565b60006020820190508181036000830152612107816120cb565b9050919050565b7f4e6565642065746820746f2063726561746520706f6f6c2e0000000000000000600082015250565b6000612144601883611b78565b915061214f8261210e565b602082019050919050565b6000602082019050818103600083015261217381612137565b9050919050565b60008151905061218981611994565b92915050565b6000602082840312156121a5576121a4611985565b5b60006121b38482850161217a565b91505092915050565b7f4e6f74206861766520656e6f75676820746f6b656e7320746f2063726561746560008201527f2074686520706f6f6c0000000000000000000000000000000000000000000000602082015250565b6000612218602983611b78565b9150612223826121bc565b604082019050919050565b600060208201905081810360008301526122478161220b565b9050919050565b7f4e65656420746f6b656e7320746f2063726561746520706f6f6c2e0000000000600082015250565b6000612284601b83611b78565b915061228f8261224e565b602082019050919050565b600060208201905081810360008301526122b381612277565b9050919050565b60006060820190506122cf6000830186611ab2565b6122dc6020830185611ab2565b6122e96040830184611adc565b949350505050565b7f43616e2774207769746864726177206d6f726520455448207468616e2065786960008201527f7374730000000000000000000000000000000000000000000000000000000000602082015250565b600061234d602383611b78565b9150612358826122f1565b604082019050919050565b6000602082019050818103600083015261237c81612340565b9050919050565b7f6c657373207468616e206d696e2065786368616e676520726174650000000000600082015250565b60006123b9601b83611b78565b91506123c482612383565b602082019050919050565b600060208201905081810360008301526123e8816123ac565b9050919050565b7f6d6f7265207468616e206d617820657868616e67652072617465000000000000600082015250565b6000612425601a83611b78565b9150612430826123ef565b602082019050919050565b6000602082019050818103600083015261245481612418565b9050919050565b7f4e6f7420656e6f75676820746f6b656e7320746f207769746864726177000000600082015250565b6000612491601d83611b78565b915061249c8261245b565b602082019050919050565b600060208201905081810360008301526124c081612484565b9050919050565b600081905092915050565b50565b60006124e26000836124c7565b91506124ed826124d2565b600082019050919050565b6000612503826124d5565b9150819050919050565b7f4661696c656420746f2073656e64204574686572000000000000000000000000600082015250565b6000612543601483611b78565b915061254e8261250d565b602082019050919050565b6000602082019050818103600083015261257281612536565b9050919050565b7f6d75737420616464206e6f6e7a65726f20616d6f756e74000000000000000000600082015250565b60006125af601783611b78565b91506125ba82612579565b602082019050919050565b600060208201905081810360008301526125de816125a2565b9050919050565b7f5573657220646f65736e2774206861766520656e6f75676820746f6b656e7300600082015250565b600061261b601f83611b78565b9150612626826125e5565b602082019050919050565b6000602082019050818103600083015261264a8161260e565b9050919050565b7f73656e64657220646f65736e277420686176652073756666696369656e74207460008201527f6f6b656e73000000000000000000000000000000000000000000000000000000602082015250565b60006126ad602583611b78565b91506126b882612651565b604082019050919050565b600060208201905081810360008301526126dc816126a0565b9050919050565b7f6d6f7265207468616e206d61782065786368616e676520726174650000000000600082015250565b6000612719601b83611b78565b9150612724826126e3565b602082019050919050565b600060208201905081810360008301526127488161270c565b9050919050565b7f43616e27742067657420726964206f6620616c6c206574680000000000000000600082015250565b6000612785601883611b78565b91506127908261274f565b602082019050919050565b600060208201905081810360008301526127b481612778565b9050919050565b7f4f776e61626c653a206e6577206f776e657220697320746865207a65726f206160008201527f6464726573730000000000000000000000000000000000000000000000000000602082015250565b6000612817602683611b78565b9150612822826127bb565b604082019050919050565b600060208201905081810360008301526128468161280a565b9050919050565b7f4e487b7100000000000000000000000000000000000000000000000000000000600052602260045260246000fd5b6000600282049050600182168061289457607f821691505b6020821081036128a7576128a661284d565b5b50919050565b7f4f776e61626c653a2063616c6c6572206973206e6f7420746865206f776e6572600082015250565b60006128e3602083611b78565b91506128ee826128ad565b602082019050919050565b60006020820190508181036000830152612912816128d6565b905091905056fea2646970667358221220fda75bca63b6a23102ef5e5abf030d02c082bae229937a769c2278d8ea8de29864736f6c63430008110033","opcodes":"PUSH1 0x80 PUSH1 0x40 MSTORE PUSH1 0x40 MLOAD DUP1 PUSH1 0x20 ADD PUSH1 0x40 MSTORE DUP1 PUSH1 0x0 DUP2 MSTORE POP PUSH1 0x1 SWAP1 DUP2 PUSH3 0x24 SWAP2 SWAP1 PUSH3 0x48D JUMP JUMPDEST POP PUSH20 0x5FBDB2315678AFECB367F032D93F642F64180AA3 PUSH1 0x2 PUSH1 0x0 PUSH2 0x100 EXP DUP2 SLOAD DUP2 PUSH20 0xFFFFFFFFFFFFFFFFFFFFFFFFFFFFFFFFFFFFFFFF MUL NOT AND SWAP1 DUP4 PUSH20 0xFFFFFFFFFFFFFFFFFFFFFFFFFFFFFFFFFFFFFFFF AND MUL OR SWAP1 SSTORE POP PUSH1 0x2 PUSH1 0x0 SWAP1 SLOAD SWAP1 PUSH2 0x100 EXP SWAP1 DIV PUSH20 0xFFFFFFFFFFFFFFFFFFFFFFFFFFFFFFFFFFFFFFFF AND PUSH1 0x3 PUSH1 0x0 PUSH2 0x100 EXP DUP2 SLOAD DUP2 PUSH20 0xFFFFFFFFFFFFFFFFFFFFFFFFFFFFFFFFFFFFFFFF MUL NOT AND SWAP1 DUP4 PUSH20 0xFFFFFFFFFFFFFFFFFFFFFFFFFFFFFFFFFFFFFFFF AND MUL OR SWAP1 SSTORE POP PUSH1 0x0 PUSH1 0x4 SSTORE PUSH1 0x0 PUSH1 0x5 SSTORE PUSH1 0x0 PUSH1 0x6 SSTORE PUSH1 0x0 PUSH1 0x7 SSTORE PUSH1 0x0 PUSH1 0xA SSTORE PUSH1 0x3 PUSH1 0xB SSTORE PUSH1 0x64 PUSH1 0xC SSTORE PUSH3 0x186A0 PUSH1 0xE SSTORE PUSH8 0xDE0B6B3A7640000 PUSH1 0xF SSTORE CALLVALUE DUP1 ISZERO PUSH3 0x120 JUMPI PUSH1 0x0 DUP1 REVERT JUMPDEST POP PUSH3 0x141 PUSH3 0x135 PUSH3 0x147 PUSH1 0x20 SHL PUSH1 0x20 SHR JUMP JUMPDEST PUSH3 0x14F PUSH1 0x20 SHL PUSH1 0x20 SHR JUMP JUMPDEST PUSH3 0x574 JUMP JUMPDEST PUSH1 0x0 CALLER SWAP1 POP SWAP1 JUMP JUMPDEST PUSH1 0x0 DUP1 PUSH1 0x0 SWAP1 SLOAD SWAP1 PUSH2 0x100 EXP SWAP1 DIV PUSH20 0xFFFFFFFFFFFFFFFFFFFFFFFFFFFFFFFFFFFFFFFF AND SWAP1 POP DUP2 PUSH1 0x0 DUP1 PUSH2 0x100 EXP DUP2 SLOAD DUP2 PUSH20 0xFFFFFFFFFFFFFFFFFFFFFFFFFFFFFFFFFFFFFFFF MUL NOT AND SWAP1 DUP4 PUSH20 0xFFFFFFFFFFFFFFFFFFFFFFFFFFFFFFFFFFFFFFFF AND MUL OR SWAP1 SSTORE POP DUP2 PUSH20 0xFFFFFFFFFFFFFFFFFFFFFFFFFFFFFFFFFFFFFFFF AND DUP2 PUSH20 0xFFFFFFFFFFFFFFFFFFFFFFFFFFFFFFFFFFFFFFFF AND PUSH32 0x8BE0079C531659141344CD1FD0A4F28419497F9722A3DAAFE3B4186F6B6457E0 PUSH1 0x40 MLOAD PUSH1 0x40 MLOAD DUP1 SWAP2 SUB SWAP1 LOG3 POP POP JUMP JUMPDEST PUSH1 0x0 DUP2 MLOAD SWAP1 POP SWAP2 SWAP1 POP JUMP JUMPDEST PUSH32 0x4E487B7100000000000000000000000000000000000000000000000000000000 PUSH1 0x0 MSTORE PUSH1 0x41 PUSH1 0x4 MSTORE PUSH1 0x24 PUSH1 0x0 REVERT JUMPDEST PUSH32 0x4E487B7100000000000000000000000000000000000000000000000000000000 PUSH1 0x0 MSTORE PUSH1 0x22 PUSH1 0x4 MSTORE PUSH1 0x24 PUSH1 0x0 REVERT JUMPDEST PUSH1 0x0 PUSH1 0x2 DUP3 DIV SWAP1 POP PUSH1 0x1 DUP3 AND DUP1 PUSH3 0x295 JUMPI PUSH1 0x7F DUP3 AND SWAP2 POP JUMPDEST PUSH1 0x20 DUP3 LT DUP2 SUB PUSH3 0x2AB JUMPI PUSH3 0x2AA PUSH3 0x24D JUMP JUMPDEST JUMPDEST POP SWAP2 SWAP1 POP JUMP JUMPDEST PUSH1 0x0 DUP2 SWAP1 POP DUP2 PUSH1 0x0 MSTORE PUSH1 0x20 PUSH1 0x0 KECCAK256 SWAP1 POP SWAP2 SWAP1 POP JUMP JUMPDEST PUSH1 0x0 PUSH1 0x20 PUSH1 0x1F DUP4 ADD DIV SWAP1 POP SWAP2 SWAP1 POP JUMP JUMPDEST PUSH1 0x0 DUP3 DUP3 SHL SWAP1 POP SWAP3 SWAP2 POP POP JUMP JUMPDEST PUSH1 0x0 PUSH1 0x8 DUP4 MUL PUSH3 0x315 PUSH32 0xFFFFFFFFFFFFFFFFFFFFFFFFFFFFFFFFFFFFFFFFFFFFFFFFFFFFFFFFFFFFFFFF DUP3 PUSH3 0x2D6 JUMP JUMPDEST PUSH3 0x321 DUP7 DUP4 PUSH3 0x2D6 JUMP JUMPDEST SWAP6 POP DUP1 NOT DUP5 AND SWAP4 POP DUP1 DUP7 AND DUP5 OR SWAP3 POP POP POP SWAP4 SWAP3 POP POP POP JUMP JUMPDEST PUSH1 0x0 DUP2 SWAP1 POP SWAP2 SWAP1 POP JUMP JUMPDEST PUSH1 0x0 DUP2 SWAP1 POP SWAP2 SWAP1 POP JUMP JUMPDEST PUSH1 0x0 PUSH3 0x36E PUSH3 0x368 PUSH3 0x362 DUP5 PUSH3 0x339 JUMP JUMPDEST PUSH3 0x343 JUMP JUMPDEST PUSH3 0x339 JUMP JUMPDEST SWAP1 POP SWAP2 SWAP1 POP JUMP JUMPDEST PUSH1 0x0 DUP2 SWAP1 POP SWAP2 SWAP1 POP JUMP JUMPDEST PUSH3 0x38A DUP4 PUSH3 0x34D JUMP JUMPDEST PUSH3 0x3A2 PUSH3 0x399 DUP3 PUSH3 0x375 JUMP JUMPDEST DUP5 DUP5 SLOAD PUSH3 0x2E3 JUMP JUMPDEST DUP3 SSTORE POP POP POP POP JUMP JUMPDEST PUSH1 0x0 SWAP1 JUMP JUMPDEST PUSH3 0x3B9 PUSH3 0x3AA JUMP JUMPDEST PUSH3 0x3C6 DUP2 DUP5 DUP5 PUSH3 0x37F JUMP JUMPDEST POP POP POP JUMP JUMPDEST JUMPDEST DUP2 DUP2 LT ISZERO PUSH3 0x3EE JUMPI PUSH3 0x3E2 PUSH1 0x0 DUP3 PUSH3 0x3AF JUMP JUMPDEST PUSH1 0x1 DUP2 ADD SWAP1 POP PUSH3 0x3CC JUMP JUMPDEST POP POP JUMP JUMPDEST PUSH1 0x1F DUP3 GT ISZERO PUSH3 0x43D JUMPI PUSH3 0x407 DUP2 PUSH3 0x2B1 JUMP JUMPDEST PUSH3 0x412 DUP5 PUSH3 0x2C6 JUMP JUMPDEST DUP2 ADD PUSH1 0x20 DUP6 LT ISZERO PUSH3 0x422 JUMPI DUP2 SWAP1 POP JUMPDEST PUSH3 0x43A PUSH3 0x431 DUP6 PUSH3 0x2C6 JUMP JUMPDEST DUP4 ADD DUP3 PUSH3 0x3CB JUMP JUMPDEST POP POP JUMPDEST POP POP POP JUMP JUMPDEST PUSH1 0x0 DUP3 DUP3 SHR SWAP1 POP SWAP3 SWAP2 POP POP JUMP JUMPDEST PUSH1 0x0 PUSH3 0x462 PUSH1 0x0 NOT DUP5 PUSH1 0x8 MUL PUSH3 0x442 JUMP JUMPDEST NOT DUP1 DUP4 AND SWAP2 POP POP SWAP3 SWAP2 POP POP JUMP JUMPDEST PUSH1 0x0 PUSH3 0x47D DUP4 DUP4 PUSH3 0x44F JUMP JUMPDEST SWAP2 POP DUP3 PUSH1 0x2 MUL DUP3 OR SWAP1 POP SWAP3 SWAP2 POP POP JUMP JUMPDEST PUSH3 0x498 DUP3 PUSH3 0x213 JUMP JUMPDEST PUSH8 0xFFFFFFFFFFFFFFFF DUP2 GT ISZERO PUSH3 0x4B4 JUMPI PUSH3 0x4B3 PUSH3 0x21E JUMP JUMPDEST JUMPDEST PUSH3 0x4C0 DUP3 SLOAD PUSH3 0x27C JUMP JUMPDEST PUSH3 0x4CD DUP3 DUP3 DUP6 PUSH3 0x3F2 JUMP JUMPDEST PUSH1 0x0 PUSH1 0x20 SWAP1 POP PUSH1 0x1F DUP4 GT PUSH1 0x1 DUP2 EQ PUSH3 0x505 JUMPI PUSH1 0x0 DUP5 ISZERO PUSH3 0x4F0 JUMPI DUP3 DUP8 ADD MLOAD SWAP1 POP JUMPDEST PUSH3 0x4FC DUP6 DUP3 PUSH3 0x46F JUMP JUMPDEST DUP7 SSTORE POP PUSH3 0x56C JUMP JUMPDEST PUSH1 0x1F NOT DUP5 AND PUSH3 0x515 DUP7 PUSH3 0x2B1 JUMP JUMPDEST PUSH1 0x0 JUMPDEST DUP3 DUP2 LT ISZERO PUSH3 0x53F JUMPI DUP5 DUP10 ADD MLOAD DUP3 SSTORE PUSH1 0x1 DUP3 ADD SWAP2 POP PUSH1 0x20 DUP6 ADD SWAP5 POP PUSH1 0x20 DUP2 ADD SWAP1 POP PUSH3 0x518 JUMP JUMPDEST DUP7 DUP4 LT ISZERO PUSH3 0x55F JUMPI DUP5 DUP10 ADD MLOAD PUSH3 0x55B PUSH1 0x1F DUP10 AND DUP3 PUSH3 0x44F JUMP JUMPDEST DUP4 SSTORE POP JUMPDEST PUSH1 0x1 PUSH1 0x2 DUP9 MUL ADD DUP9 SSTORE POP POP POP JUMPDEST POP POP POP POP POP POP JUMP JUMPDEST PUSH2 0x294F DUP1 PUSH3 0x584 PUSH1 0x0 CODECOPY PUSH1 0x0 RETURN INVALID PUSH1 0x80 PUSH1 0x40 MSTORE PUSH1 0x4 CALLDATASIZE LT PUSH2 0xA7 JUMPI PUSH1 0x0 CALLDATALOAD PUSH1 0xE0 SHR DUP1 PUSH4 0x9CD441DA GT PUSH2 0x64 JUMPI DUP1 PUSH4 0x9CD441DA EQ PUSH2 0x15E JUMPI DUP1 PUSH4 0xA22280A6 EQ PUSH2 0x17A JUMPI DUP1 PUSH4 0xD4CADF68 EQ PUSH2 0x196 JUMPI DUP1 PUSH4 0xF2FDE38B EQ PUSH2 0x1C2 JUMPI DUP1 PUSH4 0xF694F7D1 EQ PUSH2 0x1EB JUMPI DUP1 PUSH4 0xFC0C546A EQ PUSH2 0x216 JUMPI PUSH2 0xA7 JUMP JUMPDEST DUP1 PUSH4 0x2EAB2841 EQ PUSH2 0xAC JUMPI DUP1 PUSH4 0x58AD6DE4 EQ PUSH2 0xC8 JUMPI DUP1 PUSH4 0x715018A6 EQ PUSH2 0xE4 JUMPI DUP1 PUSH4 0x8259E6A0 EQ PUSH2 0xFB JUMPI DUP1 PUSH4 0x857620E1 EQ PUSH2 0x117 JUMPI DUP1 PUSH4 0x8DA5CB5B EQ PUSH2 0x133 JUMPI JUMPDEST PUSH1 0x0 DUP1 REVERT JUMPDEST PUSH2 0xC6 PUSH1 0x4 DUP1 CALLDATASIZE SUB DUP2 ADD SWAP1 PUSH2 0xC1 SWAP2 SWAP1 PUSH2 0x19C0 JUMP JUMPDEST PUSH2 0x241 JUMP JUMPDEST STOP JUMPDEST PUSH2 0xE2 PUSH1 0x4 DUP1 CALLDATASIZE SUB DUP2 ADD SWAP1 PUSH2 0xDD SWAP2 SWAP1 PUSH2 0x19ED JUMP JUMPDEST PUSH2 0x4D7 JUMP JUMPDEST STOP JUMPDEST CALLVALUE DUP1 ISZERO PUSH2 0xF0 JUMPI PUSH1 0x0 DUP1 REVERT JUMPDEST POP PUSH2 0xF9 PUSH2 0x54B JUMP JUMPDEST STOP JUMPDEST PUSH2 0x115 PUSH1 0x4 DUP1 CALLDATASIZE SUB DUP2 ADD SWAP1 PUSH2 0x110 SWAP2 SWAP1 PUSH2 0x19C0 JUMP JUMPDEST PUSH2 0x55F JUMP JUMPDEST STOP JUMPDEST PUSH2 0x131 PUSH1 0x4 DUP1 CALLDATASIZE SUB DUP2 ADD SWAP1 PUSH2 0x12C SWAP2 SWAP1 PUSH2 0x1A2D JUMP JUMPDEST PUSH2 0x90F JUMP JUMPDEST STOP JUMPDEST CALLVALUE DUP1 ISZERO PUSH2 0x13F JUMPI PUSH1 0x0 DUP1 REVERT JUMPDEST POP PUSH2 0x148 PUSH2 0xEB4 JUMP JUMPDEST PUSH1 0x40 MLOAD PUSH2 0x155 SWAP2 SWAP1 PUSH2 0x1AC1 JUMP JUMPDEST PUSH1 0x40 MLOAD DUP1 SWAP2 SUB SWAP1 RETURN JUMPDEST PUSH2 0x178 PUSH1 0x4 DUP1 CALLDATASIZE SUB DUP2 ADD SWAP1 PUSH2 0x173 SWAP2 SWAP1 PUSH2 0x19ED JUMP JUMPDEST PUSH2 0xEDD JUMP JUMPDEST STOP JUMPDEST PUSH2 0x194 PUSH1 0x4 DUP1 CALLDATASIZE SUB DUP2 ADD SWAP1 PUSH2 0x18F SWAP2 SWAP1 PUSH2 0x19ED JUMP JUMPDEST PUSH2 0x130C JUMP JUMPDEST STOP JUMPDEST CALLVALUE DUP1 ISZERO PUSH2 0x1A2 JUMPI PUSH1 0x0 DUP1 REVERT JUMPDEST POP PUSH2 0x1AB PUSH2 0x16F3 JUMP JUMPDEST PUSH1 0x40 MLOAD PUSH2 0x1B9 SWAP3 SWAP2 SWAP1 PUSH2 0x1AEB JUMP JUMPDEST PUSH1 0x40 MLOAD DUP1 SWAP2 SUB SWAP1 RETURN JUMPDEST CALLVALUE DUP1 ISZERO PUSH2 0x1CE JUMPI PUSH1 0x0 DUP1 REVERT JUMPDEST POP PUSH2 0x1E9 PUSH1 0x4 DUP1 CALLDATASIZE SUB DUP2 ADD SWAP1 PUSH2 0x1E4 SWAP2 SWAP1 PUSH2 0x1B40 JUMP JUMPDEST PUSH2 0x1704 JUMP JUMPDEST STOP JUMPDEST CALLVALUE DUP1 ISZERO PUSH2 0x1F7 JUMPI PUSH1 0x0 DUP1 REVERT JUMPDEST POP PUSH2 0x200 PUSH2 0x1787 JUMP JUMPDEST PUSH1 0x40 MLOAD PUSH2 0x20D SWAP2 SWAP1 PUSH2 0x1BFD JUMP JUMPDEST PUSH1 0x40 MLOAD DUP1 SWAP2 SUB SWAP1 RETURN JUMPDEST CALLVALUE DUP1 ISZERO PUSH2 0x222 JUMPI PUSH1 0x0 DUP1 REVERT JUMPDEST POP PUSH2 0x22B PUSH2 0x1815 JUMP JUMPDEST PUSH1 0x40 MLOAD PUSH2 0x238 SWAP2 SWAP1 PUSH2 0x1C7E JUMP JUMPDEST PUSH1 0x40 MLOAD DUP1 SWAP2 SUB SWAP1 RETURN JUMPDEST PUSH1 0x0 CALLVALUE GT PUSH2 0x284 JUMPI PUSH1 0x40 MLOAD PUSH32 0x8C379A000000000000000000000000000000000000000000000000000000000 DUP2 MSTORE PUSH1 0x4 ADD PUSH2 0x27B SWAP1 PUSH2 0x1CE5 JUMP JUMPDEST PUSH1 0x40 MLOAD DUP1 SWAP2 SUB SWAP1 REVERT JUMPDEST PUSH1 0x0 CALLVALUE PUSH1 0x5 SLOAD PUSH2 0x294 SWAP2 SWAP1 PUSH2 0x1D34 JUMP JUMPDEST PUSH1 0x4 SLOAD CALLVALUE PUSH2 0x2A2 SWAP2 SWAP1 PUSH2 0x1D68 JUMP JUMPDEST PUSH2 0x2AC SWAP2 SWAP1 PUSH2 0x1DD9 JUMP JUMPDEST SWAP1 POP DUP2 CALLVALUE PUSH1 0xF SLOAD PUSH1 0xE SLOAD DUP5 PUSH2 0x2C1 SWAP2 SWAP1 PUSH2 0x1D68 JUMP JUMPDEST PUSH2 0x2CB SWAP2 SWAP1 PUSH2 0x1D68 JUMP JUMPDEST PUSH2 0x2D5 SWAP2 SWAP1 PUSH2 0x1DD9 JUMP JUMPDEST LT PUSH2 0x315 JUMPI PUSH1 0x40 MLOAD PUSH32 0x8C379A000000000000000000000000000000000000000000000000000000000 DUP2 MSTORE PUSH1 0x4 ADD PUSH2 0x30C SWAP1 PUSH2 0x1E56 JUMP JUMPDEST PUSH1 0x40 MLOAD DUP1 SWAP2 SUB SWAP1 REVERT JUMPDEST PUSH1 0x1 PUSH1 0x4 SLOAD PUSH2 0x324 SWAP2 SWAP1 PUSH2 0x1E76 JUMP JUMPDEST DUP2 GT ISZERO PUSH2 0x366 JUMPI PUSH1 0x40 MLOAD PUSH32 0x8C379A000000000000000000000000000000000000000000000000000000000 DUP2 MSTORE PUSH1 0x4 ADD PUSH2 0x35D SWAP1 PUSH2 0x1F1C JUMP JUMPDEST PUSH1 0x40 MLOAD DUP1 SWAP2 SUB SWAP1 REVERT JUMPDEST PUSH1 0x0 PUSH1 0xC SLOAD PUSH1 0xB SLOAD CALLVALUE PUSH2 0x379 SWAP2 SWAP1 PUSH2 0x1D68 JUMP JUMPDEST PUSH2 0x383 SWAP2 SWAP1 PUSH2 0x1DD9 JUMP JUMPDEST CALLVALUE PUSH2 0x38E SWAP2 SWAP1 PUSH2 0x1E76 JUMP JUMPDEST SWAP1 POP PUSH1 0x0 PUSH1 0xC SLOAD DUP4 PUSH1 0xB SLOAD PUSH2 0x3A3 SWAP2 SWAP1 PUSH2 0x1D68 JUMP JUMPDEST PUSH2 0x3AD SWAP2 SWAP1 PUSH2 0x1DD9 JUMP JUMPDEST DUP4 PUSH2 0x3B8 SWAP2 SWAP1 PUSH2 0x1E76 JUMP JUMPDEST SWAP1 POP DUP1 PUSH1 0x4 PUSH1 0x0 DUP3 DUP3 SLOAD PUSH2 0x3CC SWAP2 SWAP1 PUSH2 0x1E76 JUMP JUMPDEST SWAP3 POP POP DUP2 SWAP1 SSTORE POP DUP2 PUSH1 0x5 PUSH1 0x0 DUP3 DUP3 SLOAD PUSH2 0x3E5 SWAP2 SWAP1 PUSH2 0x1D34 JUMP JUMPDEST SWAP3 POP POP DUP2 SWAP1 SSTORE POP PUSH1 0x0 PUSH1 0x3 PUSH1 0x0 SWAP1 SLOAD SWAP1 PUSH2 0x100 EXP SWAP1 DIV PUSH20 0xFFFFFFFFFFFFFFFFFFFFFFFFFFFFFFFFFFFFFFFF AND PUSH20 0xFFFFFFFFFFFFFFFFFFFFFFFFFFFFFFFFFFFFFFFF AND PUSH4 0xA9059CBB CALLER DUP5 PUSH1 0x40 MLOAD DUP4 PUSH4 0xFFFFFFFF AND PUSH1 0xE0 SHL DUP2 MSTORE PUSH1 0x4 ADD PUSH2 0x44B SWAP3 SWAP2 SWAP1 PUSH2 0x1F3C JUMP JUMPDEST PUSH1 0x20 PUSH1 0x40 MLOAD DUP1 DUP4 SUB DUP2 PUSH1 0x0 DUP8 GAS CALL ISZERO DUP1 ISZERO PUSH2 0x46A JUMPI RETURNDATASIZE PUSH1 0x0 DUP1 RETURNDATACOPY RETURNDATASIZE PUSH1 0x0 REVERT JUMPDEST POP POP POP POP PUSH1 0x40 MLOAD RETURNDATASIZE PUSH1 0x1F NOT PUSH1 0x1F DUP3 ADD AND DUP3 ADD DUP1 PUSH1 0x40 MSTORE POP DUP2 ADD SWAP1 PUSH2 0x48E SWAP2 SWAP1 PUSH2 0x1F9D JUMP JUMPDEST SWAP1 POP DUP1 PUSH2 0x4D0 JUMPI PUSH1 0x40 MLOAD PUSH32 0x8C379A000000000000000000000000000000000000000000000000000000000 DUP2 MSTORE PUSH1 0x4 ADD PUSH2 0x4C7 SWAP1 PUSH2 0x2016 JUMP JUMPDEST PUSH1 0x40 MLOAD DUP1 SWAP2 SUB SWAP1 REVERT JUMPDEST POP POP POP POP POP JUMP JUMPDEST PUSH1 0x0 PUSH1 0x8 PUSH1 0x0 CALLER PUSH20 0xFFFFFFFFFFFFFFFFFFFFFFFFFFFFFFFFFFFFFFFF AND PUSH20 0xFFFFFFFFFFFFFFFFFFFFFFFFFFFFFFFFFFFFFFFF AND DUP2 MSTORE PUSH1 0x20 ADD SWAP1 DUP2 MSTORE PUSH1 0x20 ADD PUSH1 0x0 KECCAK256 SLOAD SWAP1 POP PUSH1 0x0 PUSH1 0xA SLOAD PUSH1 0x5 SLOAD DUP4 PUSH2 0x52E SWAP2 SWAP1 PUSH2 0x1D68 JUMP JUMPDEST PUSH2 0x538 SWAP2 SWAP1 PUSH2 0x1DD9 JUMP JUMPDEST SWAP1 POP PUSH2 0x545 DUP2 DUP6 DUP6 PUSH2 0x90F JUMP JUMPDEST POP POP POP POP JUMP JUMPDEST PUSH2 0x553 PUSH2 0x183B JUMP JUMPDEST PUSH2 0x55D PUSH1 0x0 PUSH2 0x18B9 JUMP JUMPDEST JUMP JUMPDEST PUSH2 0x567 PUSH2 0x183B JUMP JUMPDEST PUSH1 0x0 PUSH1 0x4 SLOAD EQ PUSH2 0x5AC JUMPI PUSH1 0x40 MLOAD PUSH32 0x8C379A000000000000000000000000000000000000000000000000000000000 DUP2 MSTORE PUSH1 0x4 ADD PUSH2 0x5A3 SWAP1 PUSH2 0x2082 JUMP JUMPDEST PUSH1 0x40 MLOAD DUP1 SWAP2 SUB SWAP1 REVERT JUMPDEST PUSH1 0x0 PUSH1 0x5 SLOAD EQ PUSH2 0x5F1 JUMPI PUSH1 0x40 MLOAD PUSH32 0x8C379A000000000000000000000000000000000000000000000000000000000 DUP2 MSTORE PUSH1 0x4 ADD PUSH2 0x5E8 SWAP1 PUSH2 0x20EE JUMP JUMPDEST PUSH1 0x40 MLOAD DUP1 SWAP2 SUB SWAP1 REVERT JUMPDEST PUSH1 0x0 CALLVALUE GT PUSH2 0x634 JUMPI PUSH1 0x40 MLOAD PUSH32 0x8C379A000000000000000000000000000000000000000000000000000000000 DUP2 MSTORE PUSH1 0x4 ADD PUSH2 0x62B SWAP1 PUSH2 0x215A JUMP JUMPDEST PUSH1 0x40 MLOAD DUP1 SWAP2 SUB SWAP1 REVERT JUMPDEST PUSH1 0x0 PUSH1 0x3 PUSH1 0x0 SWAP1 SLOAD SWAP1 PUSH2 0x100 EXP SWAP1 DIV PUSH20 0xFFFFFFFFFFFFFFFFFFFFFFFFFFFFFFFFFFFFFFFF AND PUSH20 0xFFFFFFFFFFFFFFFFFFFFFFFFFFFFFFFFFFFFFFFF AND PUSH4 0x70A08231 CALLER PUSH1 0x40 MLOAD DUP3 PUSH4 0xFFFFFFFF AND PUSH1 0xE0 SHL DUP2 MSTORE PUSH1 0x4 ADD PUSH2 0x691 SWAP2 SWAP1 PUSH2 0x1AC1 JUMP JUMPDEST PUSH1 0x20 PUSH1 0x40 MLOAD DUP1 DUP4 SUB DUP2 DUP7 GAS STATICCALL ISZERO DUP1 ISZERO PUSH2 0x6AE JUMPI RETURNDATASIZE PUSH1 0x0 DUP1 RETURNDATACOPY RETURNDATASIZE PUSH1 0x0 REVERT JUMPDEST POP POP POP POP PUSH1 0x40 MLOAD RETURNDATASIZE PUSH1 0x1F NOT PUSH1 0x1F DUP3 ADD AND DUP3 ADD DUP1 PUSH1 0x40 MSTORE POP DUP2 ADD SWAP1 PUSH2 0x6D2 SWAP2 SWAP1 PUSH2 0x218F JUMP JUMPDEST SWAP1 POP DUP1 DUP3 GT ISZERO PUSH2 0x717 JUMPI PUSH1 0x40 MLOAD PUSH32 0x8C379A000000000000000000000000000000000000000000000000000000000 DUP2 MSTORE PUSH1 0x4 ADD PUSH2 0x70E SWAP1 PUSH2 0x222E JUMP JUMPDEST PUSH1 0x40 MLOAD DUP1 SWAP2 SUB SWAP1 REVERT JUMPDEST PUSH1 0x0 DUP3 GT PUSH2 0x75A JUMPI PUSH1 0x40 MLOAD PUSH32 0x8C379A000000000000000000000000000000000000000000000000000000000 DUP2 MSTORE PUSH1 0x4 ADD PUSH2 0x751 SWAP1 PUSH2 0x229A JUMP JUMPDEST PUSH1 0x40 MLOAD DUP1 SWAP2 SUB SWAP1 REVERT JUMPDEST PUSH1 0x3 PUSH1 0x0 SWAP1 SLOAD SWAP1 PUSH2 0x100 EXP SWAP1 DIV PUSH20 0xFFFFFFFFFFFFFFFFFFFFFFFFFFFFFFFFFFFFFFFF AND PUSH20 0xFFFFFFFFFFFFFFFFFFFFFFFFFFFFFFFFFFFFFFFF AND PUSH4 0x23B872DD CALLER ADDRESS DUP6 PUSH1 0x40 MLOAD DUP5 PUSH4 0xFFFFFFFF AND PUSH1 0xE0 SHL DUP2 MSTORE PUSH1 0x4 ADD PUSH2 0x7B9 SWAP4 SWAP3 SWAP2 SWAP1 PUSH2 0x22BA JUMP JUMPDEST PUSH1 0x20 PUSH1 0x40 MLOAD DUP1 DUP4 SUB DUP2 PUSH1 0x0 DUP8 GAS CALL ISZERO DUP1 ISZERO PUSH2 0x7D8 JUMPI RETURNDATASIZE PUSH1 0x0 DUP1 RETURNDATACOPY RETURNDATASIZE PUSH1 0x0 REVERT JUMPDEST POP POP POP POP PUSH1 0x40 MLOAD RETURNDATASIZE PUSH1 0x1F NOT PUSH1 0x1F DUP3 ADD AND DUP3 ADD DUP1 PUSH1 0x40 MSTORE POP DUP2 ADD SWAP1 PUSH2 0x7FC SWAP2 SWAP1 PUSH2 0x1F9D JUMP JUMPDEST POP PUSH1 0x3 PUSH1 0x0 SWAP1 SLOAD SWAP1 PUSH2 0x100 EXP SWAP1 DIV PUSH20 0xFFFFFFFFFFFFFFFFFFFFFFFFFFFFFFFFFFFFFFFF AND PUSH20 0xFFFFFFFFFFFFFFFFFFFFFFFFFFFFFFFFFFFFFFFF AND PUSH4 0x70A08231 ADDRESS PUSH1 0x40 MLOAD DUP3 PUSH4 0xFFFFFFFF AND PUSH1 0xE0 SHL DUP2 MSTORE PUSH1 0x4 ADD PUSH2 0x858 SWAP2 SWAP1 PUSH2 0x1AC1 JUMP JUMPDEST PUSH1 0x20 PUSH1 0x40 MLOAD DUP1 DUP4 SUB DUP2 DUP7 GAS STATICCALL ISZERO DUP1 ISZERO PUSH2 0x875 JUMPI RETURNDATASIZE PUSH1 0x0 DUP1 RETURNDATACOPY RETURNDATASIZE PUSH1 0x0 REVERT JUMPDEST POP POP POP POP PUSH1 0x40 MLOAD RETURNDATASIZE PUSH1 0x1F NOT PUSH1 0x1F DUP3 ADD AND DUP3 ADD DUP1 PUSH1 0x40 MSTORE POP DUP2 ADD SWAP1 PUSH2 0x899 SWAP2 SWAP1 PUSH2 0x218F JUMP JUMPDEST PUSH1 0x4 DUP2 SWAP1 SSTORE POP CALLVALUE PUSH1 0x5 DUP2 SWAP1 SSTORE POP PUSH1 0x5 SLOAD PUSH1 0x4 SLOAD PUSH2 0x8B6 SWAP2 SWAP1 PUSH2 0x1D68 JUMP JUMPDEST PUSH1 0xD DUP2 SWAP1 SSTORE POP PUSH3 0x186A0 PUSH1 0xA DUP2 SWAP1 SSTORE POP PUSH1 0x64 PUSH1 0x8 PUSH1 0x0 CALLER PUSH20 0xFFFFFFFFFFFFFFFFFFFFFFFFFFFFFFFFFFFFFFFF AND PUSH20 0xFFFFFFFFFFFFFFFFFFFFFFFFFFFFFFFFFFFFFFFF AND DUP2 MSTORE PUSH1 0x20 ADD SWAP1 DUP2 MSTORE PUSH1 0x20 ADD PUSH1 0x0 KECCAK256 DUP2 SWAP1 SSTORE POP POP POP JUMP JUMPDEST PUSH1 0x1 PUSH1 0x5 SLOAD PUSH2 0x91E SWAP2 SWAP1 PUSH2 0x1E76 JUMP JUMPDEST DUP4 GT ISZERO PUSH2 0x960 JUMPI PUSH1 0x40 MLOAD PUSH32 0x8C379A000000000000000000000000000000000000000000000000000000000 DUP2 MSTORE PUSH1 0x4 ADD PUSH2 0x957 SWAP1 PUSH2 0x2363 JUMP JUMPDEST PUSH1 0x40 MLOAD DUP1 SWAP2 SUB SWAP1 REVERT JUMPDEST PUSH1 0x0 PUSH1 0x5 SLOAD PUSH1 0xA SLOAD DUP6 PUSH1 0x5 SLOAD PUSH2 0x976 SWAP2 SWAP1 PUSH2 0x1E76 JUMP JUMPDEST PUSH2 0x980 SWAP2 SWAP1 PUSH2 0x1D68 JUMP JUMPDEST PUSH2 0x98A SWAP2 SWAP1 PUSH2 0x1DD9 JUMP JUMPDEST SWAP1 POP PUSH1 0x0 DUP5 PUSH1 0x5 SLOAD PUSH2 0x99C SWAP2 SWAP1 PUSH2 0x1E76 JUMP JUMPDEST SWAP1 POP PUSH1 0x0 DUP2 DUP4 DUP8 PUSH2 0x9AD SWAP2 SWAP1 PUSH2 0x1D68 JUMP JUMPDEST PUSH2 0x9B7 SWAP2 SWAP1 PUSH2 0x1DD9 JUMP JUMPDEST SWAP1 POP PUSH1 0x0 PUSH1 0x5 SLOAD SELFBALANCE PUSH2 0x9C9 SWAP2 SWAP1 PUSH2 0x1E76 JUMP JUMPDEST SWAP1 POP PUSH1 0x0 PUSH1 0x4 SLOAD PUSH1 0x3 PUSH1 0x0 SWAP1 SLOAD SWAP1 PUSH2 0x100 EXP SWAP1 DIV PUSH20 0xFFFFFFFFFFFFFFFFFFFFFFFFFFFFFFFFFFFFFFFF AND PUSH20 0xFFFFFFFFFFFFFFFFFFFFFFFFFFFFFFFFFFFFFFFF AND PUSH4 0x70A08231 ADDRESS PUSH1 0x40 MLOAD DUP3 PUSH4 0xFFFFFFFF AND PUSH1 0xE0 SHL DUP2 MSTORE PUSH1 0x4 ADD PUSH2 0xA2B SWAP2 SWAP1 PUSH2 0x1AC1 JUMP JUMPDEST PUSH1 0x20 PUSH1 0x40 MLOAD DUP1 DUP4 SUB DUP2 DUP7 GAS STATICCALL ISZERO DUP1 ISZERO PUSH2 0xA48 JUMPI RETURNDATASIZE PUSH1 0x0 DUP1 RETURNDATACOPY RETURNDATASIZE PUSH1 0x0 REVERT JUMPDEST POP POP POP POP PUSH1 0x40 MLOAD RETURNDATASIZE PUSH1 0x1F NOT PUSH1 0x1F DUP3 ADD AND DUP3 ADD DUP1 PUSH1 0x40 MSTORE POP DUP2 ADD SWAP1 PUSH2 0xA6C SWAP2 SWAP1 PUSH2 0x218F JUMP JUMPDEST PUSH2 0xA76 SWAP2 SWAP1 PUSH2 0x1E76 JUMP JUMPDEST SWAP1 POP PUSH1 0x0 PUSH1 0x5 SLOAD PUSH1 0x4 SLOAD DUP11 PUSH2 0xA8B SWAP2 SWAP1 PUSH2 0x1D68 JUMP JUMPDEST PUSH2 0xA95 SWAP2 SWAP1 PUSH2 0x1DD9 JUMP JUMPDEST SWAP1 POP PUSH1 0x0 PUSH1 0xE SLOAD PUSH1 0x5 SLOAD PUSH2 0xAA9 SWAP2 SWAP1 PUSH2 0x1DD9 JUMP JUMPDEST PUSH1 0xF SLOAD PUSH1 0x4 SLOAD PUSH2 0xAB9 SWAP2 SWAP1 PUSH2 0x1D68 JUMP JUMPDEST PUSH2 0xAC3 SWAP2 SWAP1 PUSH2 0x1DD9 JUMP JUMPDEST SWAP1 POP DUP8 DUP2 GT PUSH2 0xB07 JUMPI PUSH1 0x40 MLOAD PUSH32 0x8C379A000000000000000000000000000000000000000000000000000000000 DUP2 MSTORE PUSH1 0x4 ADD PUSH2 0xAFE SWAP1 PUSH2 0x23CF JUMP JUMPDEST PUSH1 0x40 MLOAD DUP1 SWAP2 SUB SWAP1 REVERT JUMPDEST DUP9 DUP2 LT PUSH2 0xB49 JUMPI PUSH1 0x40 MLOAD PUSH32 0x8C379A000000000000000000000000000000000000000000000000000000000 DUP2 MSTORE PUSH1 0x4 ADD PUSH2 0xB40 SWAP1 PUSH2 0x243B JUMP JUMPDEST PUSH1 0x40 MLOAD DUP1 SWAP2 SUB SWAP1 REVERT JUMPDEST PUSH1 0x4 SLOAD DUP3 GT ISZERO PUSH2 0xB8E JUMPI PUSH1 0x40 MLOAD PUSH32 0x8C379A000000000000000000000000000000000000000000000000000000000 DUP2 MSTORE PUSH1 0x4 ADD PUSH2 0xB85 SWAP1 PUSH2 0x24A7 JUMP JUMPDEST PUSH1 0x40 MLOAD DUP1 SWAP2 SUB SWAP1 REVERT JUMPDEST DUP2 PUSH1 0x4 PUSH1 0x0 DUP3 DUP3 SLOAD PUSH2 0xBA0 SWAP2 SWAP1 PUSH2 0x1E76 JUMP JUMPDEST SWAP3 POP POP DUP2 SWAP1 SSTORE POP DUP10 PUSH1 0x5 PUSH1 0x0 DUP3 DUP3 SLOAD PUSH2 0xBB9 SWAP2 SWAP1 PUSH2 0x1E76 JUMP JUMPDEST SWAP3 POP POP DUP2 SWAP1 SSTORE POP PUSH1 0x0 CALLER SWAP1 POP PUSH1 0x0 DUP2 PUSH20 0xFFFFFFFFFFFFFFFFFFFFFFFFFFFFFFFFFFFFFFFF AND PUSH1 0xA SLOAD DUP8 DUP10 PUSH2 0xBED SWAP2 SWAP1 PUSH2 0x1D68 JUMP JUMPDEST PUSH2 0xBF7 SWAP2 SWAP1 PUSH2 0x1DD9 JUMP JUMPDEST DUP14 PUSH2 0xC02 SWAP2 SWAP1 PUSH2 0x1D34 JUMP JUMPDEST PUSH1 0x40 MLOAD PUSH2 0xC0E SWAP1 PUSH2 0x24F8 JUMP JUMPDEST PUSH1 0x0 PUSH1 0x40 MLOAD DUP1 DUP4 SUB DUP2 DUP6 DUP8 GAS CALL SWAP3 POP POP POP RETURNDATASIZE DUP1 PUSH1 0x0 DUP2 EQ PUSH2 0xC4B JUMPI PUSH1 0x40 MLOAD SWAP2 POP PUSH1 0x1F NOT PUSH1 0x3F RETURNDATASIZE ADD AND DUP3 ADD PUSH1 0x40 MSTORE RETURNDATASIZE DUP3 MSTORE RETURNDATASIZE PUSH1 0x0 PUSH1 0x20 DUP5 ADD RETURNDATACOPY PUSH2 0xC50 JUMP JUMPDEST PUSH1 0x60 SWAP2 POP JUMPDEST POP POP SWAP1 POP DUP1 PUSH2 0xC94 JUMPI PUSH1 0x40 MLOAD PUSH32 0x8C379A000000000000000000000000000000000000000000000000000000000 DUP2 MSTORE PUSH1 0x4 ADD PUSH2 0xC8B SWAP1 PUSH2 0x2559 JUMP JUMPDEST PUSH1 0x40 MLOAD DUP1 SWAP2 SUB SWAP1 REVERT JUMPDEST PUSH1 0x0 PUSH1 0x3 PUSH1 0x0 SWAP1 SLOAD SWAP1 PUSH2 0x100 EXP SWAP1 DIV PUSH20 0xFFFFFFFFFFFFFFFFFFFFFFFFFFFFFFFFFFFFFFFF AND PUSH20 0xFFFFFFFFFFFFFFFFFFFFFFFFFFFFFFFFFFFFFFFF AND PUSH4 0xA9059CBB CALLER PUSH1 0xA SLOAD DUP10 DUP13 PUSH2 0xCE4 SWAP2 SWAP1 PUSH2 0x1D68 JUMP JUMPDEST PUSH2 0xCEE SWAP2 SWAP1 PUSH2 0x1DD9 JUMP JUMPDEST DUP9 PUSH2 0xCF9 SWAP2 SWAP1 PUSH2 0x1D34 JUMP JUMPDEST PUSH1 0x40 MLOAD DUP4 PUSH4 0xFFFFFFFF AND PUSH1 0xE0 SHL DUP2 MSTORE PUSH1 0x4 ADD PUSH2 0xD16 SWAP3 SWAP2 SWAP1 PUSH2 0x1F3C JUMP JUMPDEST PUSH1 0x20 PUSH1 0x40 MLOAD DUP1 DUP4 SUB DUP2 PUSH1 0x0 DUP8 GAS CALL ISZERO DUP1 ISZERO PUSH2 0xD35 JUMPI RETURNDATASIZE PUSH1 0x0 DUP1 RETURNDATACOPY RETURNDATASIZE PUSH1 0x0 REVERT JUMPDEST POP POP POP POP PUSH1 0x40 MLOAD RETURNDATASIZE PUSH1 0x1F NOT PUSH1 0x1F DUP3 ADD AND DUP3 ADD DUP1 PUSH1 0x40 MSTORE POP DUP2 ADD SWAP1 PUSH2 0xD59 SWAP2 SWAP1 PUSH2 0x1F9D JUMP JUMPDEST SWAP1 POP DUP1 PUSH2 0xD9B JUMPI PUSH1 0x40 MLOAD PUSH32 0x8C379A000000000000000000000000000000000000000000000000000000000 DUP2 MSTORE PUSH1 0x4 ADD PUSH2 0xD92 SWAP1 PUSH2 0x2016 JUMP JUMPDEST PUSH1 0x40 MLOAD DUP1 SWAP2 SUB SWAP1 REVERT JUMPDEST DUP8 PUSH1 0x8 PUSH1 0x0 CALLER PUSH20 0xFFFFFFFFFFFFFFFFFFFFFFFFFFFFFFFFFFFFFFFF AND PUSH20 0xFFFFFFFFFFFFFFFFFFFFFFFFFFFFFFFFFFFFFFFF AND DUP2 MSTORE PUSH1 0x20 ADD SWAP1 DUP2 MSTORE PUSH1 0x20 ADD PUSH1 0x0 KECCAK256 PUSH1 0x0 DUP3 DUP3 SLOAD PUSH2 0xDEA SWAP2 SWAP1 PUSH2 0x1E76 JUMP JUMPDEST SWAP3 POP POP DUP2 SWAP1 SSTORE POP PUSH1 0x3 PUSH1 0x0 SWAP1 SLOAD SWAP1 PUSH2 0x100 EXP SWAP1 DIV PUSH20 0xFFFFFFFFFFFFFFFFFFFFFFFFFFFFFFFFFFFFFFFF AND PUSH20 0xFFFFFFFFFFFFFFFFFFFFFFFFFFFFFFFFFFFFFFFF AND PUSH4 0x70A08231 ADDRESS PUSH1 0x40 MLOAD DUP3 PUSH4 0xFFFFFFFF AND PUSH1 0xE0 SHL DUP2 MSTORE PUSH1 0x4 ADD PUSH2 0xE4C SWAP2 SWAP1 PUSH2 0x1AC1 JUMP JUMPDEST PUSH1 0x20 PUSH1 0x40 MLOAD DUP1 DUP4 SUB DUP2 DUP7 GAS STATICCALL ISZERO DUP1 ISZERO PUSH2 0xE69 JUMPI RETURNDATASIZE PUSH1 0x0 DUP1 RETURNDATACOPY RETURNDATASIZE PUSH1 0x0 REVERT JUMPDEST POP POP POP POP PUSH1 0x40 MLOAD RETURNDATASIZE PUSH1 0x1F NOT PUSH1 0x1F DUP3 ADD AND DUP3 ADD DUP1 PUSH1 0x40 MSTORE POP DUP2 ADD SWAP1 PUSH2 0xE8D SWAP2 SWAP1 PUSH2 0x218F JUMP JUMPDEST SELFBALANCE PUSH2 0xE98 SWAP2 SWAP1 PUSH2 0x1D68 JUMP JUMPDEST PUSH1 0xD DUP2 SWAP1 SSTORE POP DUP10 PUSH1 0xA DUP2 SWAP1 SSTORE POP POP POP POP POP POP POP POP POP POP POP POP POP POP JUMP JUMPDEST PUSH1 0x0 DUP1 PUSH1 0x0 SWAP1 SLOAD SWAP1 PUSH2 0x100 EXP SWAP1 DIV PUSH20 0xFFFFFFFFFFFFFFFFFFFFFFFFFFFFFFFFFFFFFFFF AND SWAP1 POP SWAP1 JUMP JUMPDEST PUSH1 0x0 CALLVALUE GT PUSH2 0xF20 JUMPI PUSH1 0x40 MLOAD PUSH32 0x8C379A000000000000000000000000000000000000000000000000000000000 DUP2 MSTORE PUSH1 0x4 ADD PUSH2 0xF17 SWAP1 PUSH2 0x25C5 JUMP JUMPDEST PUSH1 0x40 MLOAD DUP1 SWAP2 SUB SWAP1 REVERT JUMPDEST PUSH1 0x0 PUSH1 0x5 SLOAD PUSH1 0xA SLOAD PUSH1 0x5 SLOAD CALLVALUE PUSH2 0xF36 SWAP2 SWAP1 PUSH2 0x1D34 JUMP JUMPDEST PUSH2 0xF40 SWAP2 SWAP1 PUSH2 0x1D68 JUMP JUMPDEST PUSH2 0xF4A SWAP2 SWAP1 PUSH2 0x1DD9 JUMP JUMPDEST SWAP1 POP PUSH1 0x0 PUSH1 0x5 SLOAD CALLVALUE PUSH2 0xF5C SWAP2 SWAP1 PUSH2 0x1D34 JUMP JUMPDEST SWAP1 POP PUSH1 0x0 DUP2 DUP4 CALLVALUE PUSH2 0xF6D SWAP2 SWAP1 PUSH2 0x1D68 JUMP JUMPDEST PUSH2 0xF77 SWAP2 SWAP1 PUSH2 0x1DD9 JUMP JUMPDEST SWAP1 POP DUP1 PUSH1 0x8 PUSH1 0x0 CALLER PUSH20 0xFFFFFFFFFFFFFFFFFFFFFFFFFFFFFFFFFFFFFFFF AND PUSH20 0xFFFFFFFFFFFFFFFFFFFFFFFFFFFFFFFFFFFFFFFF AND DUP2 MSTORE PUSH1 0x20 ADD SWAP1 DUP2 MSTORE PUSH1 0x20 ADD PUSH1 0x0 KECCAK256 PUSH1 0x0 DUP3 DUP3 SLOAD PUSH2 0xFC8 SWAP2 SWAP1 PUSH2 0x1D34 JUMP JUMPDEST SWAP3 POP POP DUP2 SWAP1 SSTORE POP PUSH1 0x0 PUSH1 0x5 SLOAD PUSH1 0x4 SLOAD CALLVALUE PUSH2 0xFE2 SWAP2 SWAP1 PUSH2 0x1D68 JUMP JUMPDEST PUSH2 0xFEC SWAP2 SWAP1 PUSH2 0x1DD9 JUMP JUMPDEST SWAP1 POP PUSH1 0x0 PUSH1 0xE SLOAD CALLVALUE PUSH2 0xFFE SWAP2 SWAP1 PUSH2 0x1DD9 JUMP JUMPDEST PUSH1 0xF SLOAD DUP4 PUSH2 0x100C SWAP2 SWAP1 PUSH2 0x1D68 JUMP JUMPDEST PUSH2 0x1016 SWAP2 SWAP1 PUSH2 0x1DD9 JUMP JUMPDEST SWAP1 POP DUP6 DUP2 GT PUSH2 0x105A JUMPI PUSH1 0x40 MLOAD PUSH32 0x8C379A000000000000000000000000000000000000000000000000000000000 DUP2 MSTORE PUSH1 0x4 ADD PUSH2 0x1051 SWAP1 PUSH2 0x23CF JUMP JUMPDEST PUSH1 0x40 MLOAD DUP1 SWAP2 SUB SWAP1 REVERT JUMPDEST DUP7 DUP2 LT PUSH2 0x109C JUMPI PUSH1 0x40 MLOAD PUSH32 0x8C379A000000000000000000000000000000000000000000000000000000000 DUP2 MSTORE PUSH1 0x4 ADD PUSH2 0x1093 SWAP1 PUSH2 0x243B JUMP JUMPDEST PUSH1 0x40 MLOAD DUP1 SWAP2 SUB SWAP1 REVERT JUMPDEST PUSH1 0x3 PUSH1 0x0 SWAP1 SLOAD SWAP1 PUSH2 0x100 EXP SWAP1 DIV PUSH20 0xFFFFFFFFFFFFFFFFFFFFFFFFFFFFFFFFFFFFFFFF AND PUSH20 0xFFFFFFFFFFFFFFFFFFFFFFFFFFFFFFFFFFFFFFFF AND PUSH4 0x70A08231 CALLER PUSH1 0x40 MLOAD DUP3 PUSH4 0xFFFFFFFF AND PUSH1 0xE0 SHL DUP2 MSTORE PUSH1 0x4 ADD PUSH2 0x10F7 SWAP2 SWAP1 PUSH2 0x1AC1 JUMP JUMPDEST PUSH1 0x20 PUSH1 0x40 MLOAD DUP1 DUP4 SUB DUP2 DUP7 GAS STATICCALL ISZERO DUP1 ISZERO PUSH2 0x1114 JUMPI RETURNDATASIZE PUSH1 0x0 DUP1 RETURNDATACOPY RETURNDATASIZE PUSH1 0x0 REVERT JUMPDEST POP POP POP POP PUSH1 0x40 MLOAD RETURNDATASIZE PUSH1 0x1F NOT PUSH1 0x1F DUP3 ADD AND DUP3 ADD DUP1 PUSH1 0x40 MSTORE POP DUP2 ADD SWAP1 PUSH2 0x1138 SWAP2 SWAP1 PUSH2 0x218F JUMP JUMPDEST DUP3 GT ISZERO PUSH2 0x117A JUMPI PUSH1 0x40 MLOAD PUSH32 0x8C379A000000000000000000000000000000000000000000000000000000000 DUP2 MSTORE PUSH1 0x4 ADD PUSH2 0x1171 SWAP1 PUSH2 0x2631 JUMP JUMPDEST PUSH1 0x40 MLOAD DUP1 SWAP2 SUB SWAP1 REVERT JUMPDEST DUP2 PUSH1 0x4 PUSH1 0x0 DUP3 DUP3 SLOAD PUSH2 0x118C SWAP2 SWAP1 PUSH2 0x1D34 JUMP JUMPDEST SWAP3 POP POP DUP2 SWAP1 SSTORE POP CALLVALUE PUSH1 0x5 PUSH1 0x0 DUP3 DUP3 SLOAD PUSH2 0x11A5 SWAP2 SWAP1 PUSH2 0x1D34 JUMP JUMPDEST SWAP3 POP POP DUP2 SWAP1 SSTORE POP PUSH1 0x3 PUSH1 0x0 SWAP1 SLOAD SWAP1 PUSH2 0x100 EXP SWAP1 DIV PUSH20 0xFFFFFFFFFFFFFFFFFFFFFFFFFFFFFFFFFFFFFFFF AND PUSH20 0xFFFFFFFFFFFFFFFFFFFFFFFFFFFFFFFFFFFFFFFF AND PUSH4 0x23B872DD CALLER ADDRESS DUP6 PUSH1 0x40 MLOAD DUP5 PUSH4 0xFFFFFFFF AND PUSH1 0xE0 SHL DUP2 MSTORE PUSH1 0x4 ADD PUSH2 0x120B SWAP4 SWAP3 SWAP2 SWAP1 PUSH2 0x22BA JUMP JUMPDEST PUSH1 0x20 PUSH1 0x40 MLOAD DUP1 DUP4 SUB DUP2 PUSH1 0x0 DUP8 GAS CALL ISZERO DUP1 ISZERO PUSH2 0x122A JUMPI RETURNDATASIZE PUSH1 0x0 DUP1 RETURNDATACOPY RETURNDATASIZE PUSH1 0x0 REVERT JUMPDEST POP POP POP POP PUSH1 0x40 MLOAD RETURNDATASIZE PUSH1 0x1F NOT PUSH1 0x1F DUP3 ADD AND DUP3 ADD DUP1 PUSH1 0x40 MSTORE POP DUP2 ADD SWAP1 PUSH2 0x124E SWAP2 SWAP1 PUSH2 0x1F9D JUMP JUMPDEST POP DUP5 PUSH1 0xA DUP2 SWAP1 SSTORE POP PUSH1 0x3 PUSH1 0x0 SWAP1 SLOAD SWAP1 PUSH2 0x100 EXP SWAP1 DIV PUSH20 0xFFFFFFFFFFFFFFFFFFFFFFFFFFFFFFFFFFFFFFFF AND PUSH20 0xFFFFFFFFFFFFFFFFFFFFFFFFFFFFFFFFFFFFFFFF AND PUSH4 0x70A08231 ADDRESS PUSH1 0x40 MLOAD DUP3 PUSH4 0xFFFFFFFF AND PUSH1 0xE0 SHL DUP2 MSTORE PUSH1 0x4 ADD PUSH2 0x12B1 SWAP2 SWAP1 PUSH2 0x1AC1 JUMP JUMPDEST PUSH1 0x20 PUSH1 0x40 MLOAD DUP1 DUP4 SUB DUP2 DUP7 GAS STATICCALL ISZERO DUP1 ISZERO PUSH2 0x12CE JUMPI RETURNDATASIZE PUSH1 0x0 DUP1 RETURNDATACOPY RETURNDATASIZE PUSH1 0x0 REVERT JUMPDEST POP POP POP POP PUSH1 0x40 MLOAD RETURNDATASIZE PUSH1 0x1F NOT PUSH1 0x1F DUP3 ADD AND DUP3 ADD DUP1 PUSH1 0x40 MSTORE POP DUP2 ADD SWAP1 PUSH2 0x12F2 SWAP2 SWAP1 PUSH2 0x218F JUMP JUMPDEST SELFBALANCE PUSH2 0x12FD SWAP2 SWAP1 PUSH2 0x1D68 JUMP JUMPDEST PUSH1 0xD DUP2 SWAP1 SSTORE POP POP POP POP POP POP POP POP JUMP JUMPDEST DUP2 PUSH1 0x3 PUSH1 0x0 SWAP1 SLOAD SWAP1 PUSH2 0x100 EXP SWAP1 DIV PUSH20 0xFFFFFFFFFFFFFFFFFFFFFFFFFFFFFFFFFFFFFFFF AND PUSH20 0xFFFFFFFFFFFFFFFFFFFFFFFFFFFFFFFFFFFFFFFF AND PUSH4 0x70A08231 CALLER PUSH1 0x40 MLOAD DUP3 PUSH4 0xFFFFFFFF AND PUSH1 0xE0 SHL DUP2 MSTORE PUSH1 0x4 ADD PUSH2 0x1368 SWAP2 SWAP1 PUSH2 0x1AC1 JUMP JUMPDEST PUSH1 0x20 PUSH1 0x40 MLOAD DUP1 DUP4 SUB DUP2 DUP7 GAS STATICCALL ISZERO DUP1 ISZERO PUSH2 0x1385 JUMPI RETURNDATASIZE PUSH1 0x0 DUP1 RETURNDATACOPY RETURNDATASIZE PUSH1 0x0 REVERT JUMPDEST POP POP POP POP PUSH1 0x40 MLOAD RETURNDATASIZE PUSH1 0x1F NOT PUSH1 0x1F DUP3 ADD AND DUP3 ADD DUP1 PUSH1 0x40 MSTORE POP DUP2 ADD SWAP1 PUSH2 0x13A9 SWAP2 SWAP1 PUSH2 0x218F JUMP JUMPDEST LT ISZERO PUSH2 0x13EA JUMPI PUSH1 0x40 MLOAD PUSH32 0x8C379A000000000000000000000000000000000000000000000000000000000 DUP2 MSTORE PUSH1 0x4 ADD PUSH2 0x13E1 SWAP1 PUSH2 0x26C3 JUMP JUMPDEST PUSH1 0x40 MLOAD DUP1 SWAP2 SUB SWAP1 REVERT JUMPDEST PUSH1 0x0 DUP3 PUSH1 0x4 SLOAD PUSH2 0x13FA SWAP2 SWAP1 PUSH2 0x1D34 JUMP JUMPDEST PUSH1 0x5 SLOAD DUP5 PUSH2 0x1408 SWAP2 SWAP1 PUSH2 0x1D68 JUMP JUMPDEST PUSH2 0x1412 SWAP2 SWAP1 PUSH2 0x1DD9 JUMP JUMPDEST SWAP1 POP PUSH1 0x0 PUSH1 0xC SLOAD PUSH1 0xB SLOAD DUP4 PUSH2 0x1427 SWAP2 SWAP1 PUSH2 0x1D68 JUMP JUMPDEST PUSH2 0x1431 SWAP2 SWAP1 PUSH2 0x1DD9 JUMP JUMPDEST DUP3 PUSH2 0x143C SWAP2 SWAP1 PUSH2 0x1E76 JUMP JUMPDEST SWAP1 POP PUSH1 0x0 PUSH1 0xC SLOAD PUSH1 0xB SLOAD DUP7 PUSH2 0x1451 SWAP2 SWAP1 PUSH2 0x1D68 JUMP JUMPDEST PUSH2 0x145B SWAP2 SWAP1 PUSH2 0x1DD9 JUMP JUMPDEST DUP6 PUSH2 0x1466 SWAP2 SWAP1 PUSH2 0x1E76 JUMP JUMPDEST SWAP1 POP DUP4 PUSH1 0xF SLOAD PUSH1 0xE SLOAD DUP8 PUSH2 0x147A SWAP2 SWAP1 PUSH2 0x1D68 JUMP JUMPDEST PUSH2 0x1484 SWAP2 SWAP1 PUSH2 0x1D68 JUMP JUMPDEST DUP5 PUSH2 0x148F SWAP2 SWAP1 PUSH2 0x1DD9 JUMP JUMPDEST LT PUSH2 0x14CF JUMPI PUSH1 0x40 MLOAD PUSH32 0x8C379A000000000000000000000000000000000000000000000000000000000 DUP2 MSTORE PUSH1 0x4 ADD PUSH2 0x14C6 SWAP1 PUSH2 0x272F JUMP JUMPDEST PUSH1 0x40 MLOAD DUP1 SWAP2 SUB SWAP1 REVERT JUMPDEST PUSH1 0x1 PUSH1 0x5 SLOAD PUSH2 0x14DE SWAP2 SWAP1 PUSH2 0x1E76 JUMP JUMPDEST DUP4 GT ISZERO PUSH2 0x1520 JUMPI PUSH1 0x40 MLOAD PUSH32 0x8C379A000000000000000000000000000000000000000000000000000000000 DUP2 MSTORE PUSH1 0x4 ADD PUSH2 0x1517 SWAP1 PUSH2 0x279B JUMP JUMPDEST PUSH1 0x40 MLOAD DUP1 SWAP2 SUB SWAP1 REVERT JUMPDEST DUP1 PUSH1 0x4 PUSH1 0x0 DUP3 DUP3 SLOAD PUSH2 0x1532 SWAP2 SWAP1 PUSH2 0x1D34 JUMP JUMPDEST SWAP3 POP POP DUP2 SWAP1 SSTORE POP DUP2 PUSH1 0x5 PUSH1 0x0 DUP3 DUP3 SLOAD PUSH2 0x154B SWAP2 SWAP1 PUSH2 0x1E76 JUMP JUMPDEST SWAP3 POP POP DUP2 SWAP1 SSTORE POP PUSH1 0x0 CALLER SWAP1 POP PUSH1 0x0 DUP2 PUSH20 0xFFFFFFFFFFFFFFFFFFFFFFFFFFFFFFFFFFFFFFFF AND DUP5 PUSH1 0x40 MLOAD PUSH2 0x157D SWAP1 PUSH2 0x24F8 JUMP JUMPDEST PUSH1 0x0 PUSH1 0x40 MLOAD DUP1 DUP4 SUB DUP2 DUP6 DUP8 GAS CALL SWAP3 POP POP POP RETURNDATASIZE DUP1 PUSH1 0x0 DUP2 EQ PUSH2 0x15BA JUMPI PUSH1 0x40 MLOAD SWAP2 POP PUSH1 0x1F NOT PUSH1 0x3F RETURNDATASIZE ADD AND DUP3 ADD PUSH1 0x40 MSTORE RETURNDATASIZE DUP3 MSTORE RETURNDATASIZE PUSH1 0x0 PUSH1 0x20 DUP5 ADD RETURNDATACOPY PUSH2 0x15BF JUMP JUMPDEST PUSH1 0x60 SWAP2 POP JUMPDEST POP POP SWAP1 POP DUP1 PUSH2 0x1603 JUMPI PUSH1 0x40 MLOAD PUSH32 0x8C379A000000000000000000000000000000000000000000000000000000000 DUP2 MSTORE PUSH1 0x4 ADD PUSH2 0x15FA SWAP1 PUSH2 0x2559 JUMP JUMPDEST PUSH1 0x40 MLOAD DUP1 SWAP2 SUB SWAP1 REVERT JUMPDEST PUSH1 0x0 PUSH1 0x3 PUSH1 0x0 SWAP1 SLOAD SWAP1 PUSH2 0x100 EXP SWAP1 DIV PUSH20 0xFFFFFFFFFFFFFFFFFFFFFFFFFFFFFFFFFFFFFFFF AND PUSH20 0xFFFFFFFFFFFFFFFFFFFFFFFFFFFFFFFFFFFFFFFF AND PUSH4 0x23B872DD CALLER ADDRESS DUP12 PUSH1 0x40 MLOAD DUP5 PUSH4 0xFFFFFFFF AND PUSH1 0xE0 SHL DUP2 MSTORE PUSH1 0x4 ADD PUSH2 0x1664 SWAP4 SWAP3 SWAP2 SWAP1 PUSH2 0x22BA JUMP JUMPDEST PUSH1 0x20 PUSH1 0x40 MLOAD DUP1 DUP4 SUB DUP2 PUSH1 0x0 DUP8 GAS CALL ISZERO DUP1 ISZERO PUSH2 0x1683 JUMPI RETURNDATASIZE PUSH1 0x0 DUP1 RETURNDATACOPY RETURNDATASIZE PUSH1 0x0 REVERT JUMPDEST POP POP POP POP PUSH1 0x40 MLOAD RETURNDATASIZE PUSH1 0x1F NOT PUSH1 0x1F DUP3 ADD AND DUP3 ADD DUP1 PUSH1 0x40 MSTORE POP DUP2 ADD SWAP1 PUSH2 0x16A7 SWAP2 SWAP1 PUSH2 0x1F9D JUMP JUMPDEST SWAP1 POP DUP1 PUSH2 0x16E9 JUMPI PUSH1 0x40 MLOAD PUSH32 0x8C379A000000000000000000000000000000000000000000000000000000000 DUP2 MSTORE PUSH1 0x4 ADD PUSH2 0x16E0 SWAP1 PUSH2 0x2016 JUMP JUMPDEST PUSH1 0x40 MLOAD DUP1 SWAP2 SUB SWAP1 REVERT JUMPDEST POP POP POP POP POP POP POP POP JUMP JUMPDEST PUSH1 0x0 DUP1 PUSH1 0xB SLOAD PUSH1 0xC SLOAD SWAP2 POP SWAP2 POP SWAP1 SWAP2 JUMP JUMPDEST PUSH2 0x170C PUSH2 0x183B JUMP JUMPDEST PUSH1 0x0 PUSH20 0xFFFFFFFFFFFFFFFFFFFFFFFFFFFFFFFFFFFFFFFF AND DUP2 PUSH20 0xFFFFFFFFFFFFFFFFFFFFFFFFFFFFFFFFFFFFFFFF AND SUB PUSH2 0x177B JUMPI PUSH1 0x40 MLOAD PUSH32 0x8C379A000000000000000000000000000000000000000000000000000000000 DUP2 MSTORE PUSH1 0x4 ADD PUSH2 0x1772 SWAP1 PUSH2 0x282D JUMP JUMPDEST PUSH1 0x40 MLOAD DUP1 SWAP2 SUB SWAP1 REVERT JUMPDEST PUSH2 0x1784 DUP2 PUSH2 0x18B9 JUMP JUMPDEST POP JUMP JUMPDEST PUSH1 0x1 DUP1 SLOAD PUSH2 0x1794 SWAP1 PUSH2 0x287C JUMP JUMPDEST DUP1 PUSH1 0x1F ADD PUSH1 0x20 DUP1 SWAP2 DIV MUL PUSH1 0x20 ADD PUSH1 0x40 MLOAD SWAP1 DUP2 ADD PUSH1 0x40 MSTORE DUP1 SWAP3 SWAP2 SWAP1 DUP2 DUP2 MSTORE PUSH1 0x20 ADD DUP3 DUP1 SLOAD PUSH2 0x17C0 SWAP1 PUSH2 0x287C JUMP JUMPDEST DUP1 ISZERO PUSH2 0x180D JUMPI DUP1 PUSH1 0x1F LT PUSH2 0x17E2 JUMPI PUSH2 0x100 DUP1 DUP4 SLOAD DIV MUL DUP4 MSTORE SWAP2 PUSH1 0x20 ADD SWAP2 PUSH2 0x180D JUMP JUMPDEST DUP3 ADD SWAP2 SWAP1 PUSH1 0x0 MSTORE PUSH1 0x20 PUSH1 0x0 KECCAK256 SWAP1 JUMPDEST DUP2 SLOAD DUP2 MSTORE SWAP1 PUSH1 0x1 ADD SWAP1 PUSH1 0x20 ADD DUP1 DUP4 GT PUSH2 0x17F0 JUMPI DUP3 SWAP1 SUB PUSH1 0x1F AND DUP3 ADD SWAP2 JUMPDEST POP POP POP POP POP DUP2 JUMP JUMPDEST PUSH1 0x3 PUSH1 0x0 SWAP1 SLOAD SWAP1 PUSH2 0x100 EXP SWAP1 DIV PUSH20 0xFFFFFFFFFFFFFFFFFFFFFFFFFFFFFFFFFFFFFFFF AND DUP2 JUMP JUMPDEST PUSH2 0x1843 PUSH2 0x197D JUMP JUMPDEST PUSH20 0xFFFFFFFFFFFFFFFFFFFFFFFFFFFFFFFFFFFFFFFF AND PUSH2 0x1861 PUSH2 0xEB4 JUMP JUMPDEST PUSH20 0xFFFFFFFFFFFFFFFFFFFFFFFFFFFFFFFFFFFFFFFF AND EQ PUSH2 0x18B7 JUMPI PUSH1 0x40 MLOAD PUSH32 0x8C379A000000000000000000000000000000000000000000000000000000000 DUP2 MSTORE PUSH1 0x4 ADD PUSH2 0x18AE SWAP1 PUSH2 0x28F9 JUMP JUMPDEST PUSH1 0x40 MLOAD DUP1 SWAP2 SUB SWAP1 REVERT JUMPDEST JUMP JUMPDEST PUSH1 0x0 DUP1 PUSH1 0x0 SWAP1 SLOAD SWAP1 PUSH2 0x100 EXP SWAP1 DIV PUSH20 0xFFFFFFFFFFFFFFFFFFFFFFFFFFFFFFFFFFFFFFFF AND SWAP1 POP DUP2 PUSH1 0x0 DUP1 PUSH2 0x100 EXP DUP2 SLOAD DUP2 PUSH20 0xFFFFFFFFFFFFFFFFFFFFFFFFFFFFFFFFFFFFFFFF MUL NOT AND SWAP1 DUP4 PUSH20 0xFFFFFFFFFFFFFFFFFFFFFFFFFFFFFFFFFFFFFFFF AND MUL OR SWAP1 SSTORE POP DUP2 PUSH20 0xFFFFFFFFFFFFFFFFFFFFFFFFFFFFFFFFFFFFFFFF AND DUP2 PUSH20 0xFFFFFFFFFFFFFFFFFFFFFFFFFFFFFFFFFFFFFFFF AND PUSH32 0x8BE0079C531659141344CD1FD0A4F28419497F9722A3DAAFE3B4186F6B6457E0 PUSH1 0x40 MLOAD PUSH1 0x40 MLOAD DUP1 SWAP2 SUB SWAP1 LOG3 POP POP JUMP JUMPDEST PUSH1 0x0 CALLER SWAP1 POP SWAP1 JUMP JUMPDEST PUSH1 0x0 DUP1 REVERT JUMPDEST PUSH1 0x0 DUP2 SWAP1 POP SWAP2 SWAP1 POP JUMP JUMPDEST PUSH2 0x199D DUP2 PUSH2 0x198A JUMP JUMPDEST DUP2 EQ PUSH2 0x19A8 JUMPI PUSH1 0x0 DUP1 REVERT JUMPDEST POP JUMP JUMPDEST PUSH1 0x0 DUP2 CALLDATALOAD SWAP1 POP PUSH2 0x19BA DUP2 PUSH2 0x1994 JUMP JUMPDEST SWAP3 SWAP2 POP POP JUMP JUMPDEST PUSH1 0x0 PUSH1 0x20 DUP3 DUP5 SUB SLT ISZERO PUSH2 0x19D6 JUMPI PUSH2 0x19D5 PUSH2 0x1985 JUMP JUMPDEST JUMPDEST PUSH1 0x0 PUSH2 0x19E4 DUP5 DUP3 DUP6 ADD PUSH2 0x19AB JUMP JUMPDEST SWAP2 POP POP SWAP3 SWAP2 POP POP JUMP JUMPDEST PUSH1 0x0 DUP1 PUSH1 0x40 DUP4 DUP6 SUB SLT ISZERO PUSH2 0x1A04 JUMPI PUSH2 0x1A03 PUSH2 0x1985 JUMP JUMPDEST JUMPDEST PUSH1 0x0 PUSH2 0x1A12 DUP6 DUP3 DUP7 ADD PUSH2 0x19AB JUMP JUMPDEST SWAP3 POP POP PUSH1 0x20 PUSH2 0x1A23 DUP6 DUP3 DUP7 ADD PUSH2 0x19AB JUMP JUMPDEST SWAP2 POP POP SWAP3 POP SWAP3 SWAP1 POP JUMP JUMPDEST PUSH1 0x0 DUP1 PUSH1 0x0 PUSH1 0x60 DUP5 DUP7 SUB SLT ISZERO PUSH2 0x1A46 JUMPI PUSH2 0x1A45 PUSH2 0x1985 JUMP JUMPDEST JUMPDEST PUSH1 0x0 PUSH2 0x1A54 DUP7 DUP3 DUP8 ADD PUSH2 0x19AB JUMP JUMPDEST SWAP4 POP POP PUSH1 0x20 PUSH2 0x1A65 DUP7 DUP3 DUP8 ADD PUSH2 0x19AB JUMP JUMPDEST SWAP3 POP POP PUSH1 0x40 PUSH2 0x1A76 DUP7 DUP3 DUP8 ADD PUSH2 0x19AB JUMP JUMPDEST SWAP2 POP POP SWAP3 POP SWAP3 POP SWAP3 JUMP JUMPDEST PUSH1 0x0 PUSH20 0xFFFFFFFFFFFFFFFFFFFFFFFFFFFFFFFFFFFFFFFF DUP3 AND SWAP1 POP SWAP2 SWAP1 POP JUMP JUMPDEST PUSH1 0x0 PUSH2 0x1AAB DUP3 PUSH2 0x1A80 JUMP JUMPDEST SWAP1 POP SWAP2 SWAP1 POP JUMP JUMPDEST PUSH2 0x1ABB DUP2 PUSH2 0x1AA0 JUMP JUMPDEST DUP3 MSTORE POP POP JUMP JUMPDEST PUSH1 0x0 PUSH1 0x20 DUP3 ADD SWAP1 POP PUSH2 0x1AD6 PUSH1 0x0 DUP4 ADD DUP5 PUSH2 0x1AB2 JUMP JUMPDEST SWAP3 SWAP2 POP POP JUMP JUMPDEST PUSH2 0x1AE5 DUP2 PUSH2 0x198A JUMP JUMPDEST DUP3 MSTORE POP POP JUMP JUMPDEST PUSH1 0x0 PUSH1 0x40 DUP3 ADD SWAP1 POP PUSH2 0x1B00 PUSH1 0x0 DUP4 ADD DUP6 PUSH2 0x1ADC JUMP JUMPDEST PUSH2 0x1B0D PUSH1 0x20 DUP4 ADD DUP5 PUSH2 0x1ADC JUMP JUMPDEST SWAP4 SWAP3 POP POP POP JUMP JUMPDEST PUSH2 0x1B1D DUP2 PUSH2 0x1AA0 JUMP JUMPDEST DUP2 EQ PUSH2 0x1B28 JUMPI PUSH1 0x0 DUP1 REVERT JUMPDEST POP JUMP JUMPDEST PUSH1 0x0 DUP2 CALLDATALOAD SWAP1 POP PUSH2 0x1B3A DUP2 PUSH2 0x1B14 JUMP JUMPDEST SWAP3 SWAP2 POP POP JUMP JUMPDEST PUSH1 0x0 PUSH1 0x20 DUP3 DUP5 SUB SLT ISZERO PUSH2 0x1B56 JUMPI PUSH2 0x1B55 PUSH2 0x1985 JUMP JUMPDEST JUMPDEST PUSH1 0x0 PUSH2 0x1B64 DUP5 DUP3 DUP6 ADD PUSH2 0x1B2B JUMP JUMPDEST SWAP2 POP POP SWAP3 SWAP2 POP POP JUMP JUMPDEST PUSH1 0x0 DUP2 MLOAD SWAP1 POP SWAP2 SWAP1 POP JUMP JUMPDEST PUSH1 0x0 DUP3 DUP3 MSTORE PUSH1 0x20 DUP3 ADD SWAP1 POP SWAP3 SWAP2 POP POP JUMP JUMPDEST PUSH1 0x0 JUMPDEST DUP4 DUP2 LT ISZERO PUSH2 0x1BA7 JUMPI DUP1 DUP3 ADD MLOAD DUP2 DUP5 ADD MSTORE PUSH1 0x20 DUP2 ADD SWAP1 POP PUSH2 0x1B8C JUMP JUMPDEST PUSH1 0x0 DUP5 DUP5 ADD MSTORE POP POP POP POP JUMP JUMPDEST PUSH1 0x0 PUSH1 0x1F NOT PUSH1 0x1F DUP4 ADD AND SWAP1 POP SWAP2 SWAP1 POP JUMP JUMPDEST PUSH1 0x0 PUSH2 0x1BCF DUP3 PUSH2 0x1B6D JUMP JUMPDEST PUSH2 0x1BD9 DUP2 DUP6 PUSH2 0x1B78 JUMP JUMPDEST SWAP4 POP PUSH2 0x1BE9 DUP2 DUP6 PUSH1 0x20 DUP7 ADD PUSH2 0x1B89 JUMP JUMPDEST PUSH2 0x1BF2 DUP2 PUSH2 0x1BB3 JUMP JUMPDEST DUP5 ADD SWAP2 POP POP SWAP3 SWAP2 POP POP JUMP JUMPDEST PUSH1 0x0 PUSH1 0x20 DUP3 ADD SWAP1 POP DUP2 DUP2 SUB PUSH1 0x0 DUP4 ADD MSTORE PUSH2 0x1C17 DUP2 DUP5 PUSH2 0x1BC4 JUMP JUMPDEST SWAP1 POP SWAP3 SWAP2 POP POP JUMP JUMPDEST PUSH1 0x0 DUP2 SWAP1 POP SWAP2 SWAP1 POP JUMP JUMPDEST PUSH1 0x0 PUSH2 0x1C44 PUSH2 0x1C3F PUSH2 0x1C3A DUP5 PUSH2 0x1A80 JUMP JUMPDEST PUSH2 0x1C1F JUMP JUMPDEST PUSH2 0x1A80 JUMP JUMPDEST SWAP1 POP SWAP2 SWAP1 POP JUMP JUMPDEST PUSH1 0x0 PUSH2 0x1C56 DUP3 PUSH2 0x1C29 JUMP JUMPDEST SWAP1 POP SWAP2 SWAP1 POP JUMP JUMPDEST PUSH1 0x0 PUSH2 0x1C68 DUP3 PUSH2 0x1C4B JUMP JUMPDEST SWAP1 POP SWAP2 SWAP1 POP JUMP JUMPDEST PUSH2 0x1C78 DUP2 PUSH2 0x1C5D JUMP JUMPDEST DUP3 MSTORE POP POP JUMP JUMPDEST PUSH1 0x0 PUSH1 0x20 DUP3 ADD SWAP1 POP PUSH2 0x1C93 PUSH1 0x0 DUP4 ADD DUP5 PUSH2 0x1C6F JUMP JUMPDEST SWAP3 SWAP2 POP POP JUMP JUMPDEST PUSH32 0x6D7573742067697665206E6F6E7A65726F20616D6F756E740000000000000000 PUSH1 0x0 DUP3 ADD MSTORE POP JUMP JUMPDEST PUSH1 0x0 PUSH2 0x1CCF PUSH1 0x18 DUP4 PUSH2 0x1B78 JUMP JUMPDEST SWAP2 POP PUSH2 0x1CDA DUP3 PUSH2 0x1C99 JUMP JUMPDEST PUSH1 0x20 DUP3 ADD SWAP1 POP SWAP2 SWAP1 POP JUMP JUMPDEST PUSH1 0x0 PUSH1 0x20 DUP3 ADD SWAP1 POP DUP2 DUP2 SUB PUSH1 0x0 DUP4 ADD MSTORE PUSH2 0x1CFE DUP2 PUSH2 0x1CC2 JUMP JUMPDEST SWAP1 POP SWAP2 SWAP1 POP JUMP JUMPDEST PUSH32 0x4E487B7100000000000000000000000000000000000000000000000000000000 PUSH1 0x0 MSTORE PUSH1 0x11 PUSH1 0x4 MSTORE PUSH1 0x24 PUSH1 0x0 REVERT JUMPDEST PUSH1 0x0 PUSH2 0x1D3F DUP3 PUSH2 0x198A JUMP JUMPDEST SWAP2 POP PUSH2 0x1D4A DUP4 PUSH2 0x198A JUMP JUMPDEST SWAP3 POP DUP3 DUP3 ADD SWAP1 POP DUP1 DUP3 GT ISZERO PUSH2 0x1D62 JUMPI PUSH2 0x1D61 PUSH2 0x1D05 JUMP JUMPDEST JUMPDEST SWAP3 SWAP2 POP POP JUMP JUMPDEST PUSH1 0x0 PUSH2 0x1D73 DUP3 PUSH2 0x198A JUMP JUMPDEST SWAP2 POP PUSH2 0x1D7E DUP4 PUSH2 0x198A JUMP JUMPDEST SWAP3 POP DUP3 DUP3 MUL PUSH2 0x1D8C DUP2 PUSH2 0x198A JUMP JUMPDEST SWAP2 POP DUP3 DUP3 DIV DUP5 EQ DUP4 ISZERO OR PUSH2 0x1DA3 JUMPI PUSH2 0x1DA2 PUSH2 0x1D05 JUMP JUMPDEST JUMPDEST POP SWAP3 SWAP2 POP POP JUMP JUMPDEST PUSH32 0x4E487B7100000000000000000000000000000000000000000000000000000000 PUSH1 0x0 MSTORE PUSH1 0x12 PUSH1 0x4 MSTORE PUSH1 0x24 PUSH1 0x0 REVERT JUMPDEST PUSH1 0x0 PUSH2 0x1DE4 DUP3 PUSH2 0x198A JUMP JUMPDEST SWAP2 POP PUSH2 0x1DEF DUP4 PUSH2 0x198A JUMP JUMPDEST SWAP3 POP DUP3 PUSH2 0x1DFF JUMPI PUSH2 0x1DFE PUSH2 0x1DAA JUMP JUMPDEST JUMPDEST DUP3 DUP3 DIV SWAP1 POP SWAP3 SWAP2 POP POP JUMP JUMPDEST PUSH32 0x6F766572206D61782065786368616E6765207261746500000000000000000000 PUSH1 0x0 DUP3 ADD MSTORE POP JUMP JUMPDEST PUSH1 0x0 PUSH2 0x1E40 PUSH1 0x16 DUP4 PUSH2 0x1B78 JUMP JUMPDEST SWAP2 POP PUSH2 0x1E4B DUP3 PUSH2 0x1E0A JUMP JUMPDEST PUSH1 0x20 DUP3 ADD SWAP1 POP SWAP2 SWAP1 POP JUMP JUMPDEST PUSH1 0x0 PUSH1 0x20 DUP3 ADD SWAP1 POP DUP2 DUP2 SUB PUSH1 0x0 DUP4 ADD MSTORE PUSH2 0x1E6F DUP2 PUSH2 0x1E33 JUMP JUMPDEST SWAP1 POP SWAP2 SWAP1 POP JUMP JUMPDEST PUSH1 0x0 PUSH2 0x1E81 DUP3 PUSH2 0x198A JUMP JUMPDEST SWAP2 POP PUSH2 0x1E8C DUP4 PUSH2 0x198A JUMP JUMPDEST SWAP3 POP DUP3 DUP3 SUB SWAP1 POP DUP2 DUP2 GT ISZERO PUSH2 0x1EA4 JUMPI PUSH2 0x1EA3 PUSH2 0x1D05 JUMP JUMPDEST JUMPDEST SWAP3 SWAP2 POP POP JUMP JUMPDEST PUSH32 0x43616E27742074616B65206F757420616C6C20746F6B656E73206F7220656C73 PUSH1 0x0 DUP3 ADD MSTORE PUSH32 0x6520776F756C64206E65656420696E66696E6974652065746800000000000000 PUSH1 0x20 DUP3 ADD MSTORE POP JUMP JUMPDEST PUSH1 0x0 PUSH2 0x1F06 PUSH1 0x39 DUP4 PUSH2 0x1B78 JUMP JUMPDEST SWAP2 POP PUSH2 0x1F11 DUP3 PUSH2 0x1EAA JUMP JUMPDEST PUSH1 0x40 DUP3 ADD SWAP1 POP SWAP2 SWAP1 POP JUMP JUMPDEST PUSH1 0x0 PUSH1 0x20 DUP3 ADD SWAP1 POP DUP2 DUP2 SUB PUSH1 0x0 DUP4 ADD MSTORE PUSH2 0x1F35 DUP2 PUSH2 0x1EF9 JUMP JUMPDEST SWAP1 POP SWAP2 SWAP1 POP JUMP JUMPDEST PUSH1 0x0 PUSH1 0x40 DUP3 ADD SWAP1 POP PUSH2 0x1F51 PUSH1 0x0 DUP4 ADD DUP6 PUSH2 0x1AB2 JUMP JUMPDEST PUSH2 0x1F5E PUSH1 0x20 DUP4 ADD DUP5 PUSH2 0x1ADC JUMP JUMPDEST SWAP4 SWAP3 POP POP POP JUMP JUMPDEST PUSH1 0x0 DUP2 ISZERO ISZERO SWAP1 POP SWAP2 SWAP1 POP JUMP JUMPDEST PUSH2 0x1F7A DUP2 PUSH2 0x1F65 JUMP JUMPDEST DUP2 EQ PUSH2 0x1F85 JUMPI PUSH1 0x0 DUP1 REVERT JUMPDEST POP JUMP JUMPDEST PUSH1 0x0 DUP2 MLOAD SWAP1 POP PUSH2 0x1F97 DUP2 PUSH2 0x1F71 JUMP JUMPDEST SWAP3 SWAP2 POP POP JUMP JUMPDEST PUSH1 0x0 PUSH1 0x20 DUP3 DUP5 SUB SLT ISZERO PUSH2 0x1FB3 JUMPI PUSH2 0x1FB2 PUSH2 0x1985 JUMP JUMPDEST JUMPDEST PUSH1 0x0 PUSH2 0x1FC1 DUP5 DUP3 DUP6 ADD PUSH2 0x1F88 JUMP JUMPDEST SWAP2 POP POP SWAP3 SWAP2 POP POP JUMP JUMPDEST PUSH32 0x746F6B656E732077657265206E6F742073656E74000000000000000000000000 PUSH1 0x0 DUP3 ADD MSTORE POP JUMP JUMPDEST PUSH1 0x0 PUSH2 0x2000 PUSH1 0x14 DUP4 PUSH2 0x1B78 JUMP JUMPDEST SWAP2 POP PUSH2 0x200B DUP3 PUSH2 0x1FCA JUMP JUMPDEST PUSH1 0x20 DUP3 ADD SWAP1 POP SWAP2 SWAP1 POP JUMP JUMPDEST PUSH1 0x0 PUSH1 0x20 DUP3 ADD SWAP1 POP DUP2 DUP2 SUB PUSH1 0x0 DUP4 ADD MSTORE PUSH2 0x202F DUP2 PUSH2 0x1FF3 JUMP JUMPDEST SWAP1 POP SWAP2 SWAP1 POP JUMP JUMPDEST PUSH32 0x546F6B656E20726573657276657320776173206E6F7420300000000000000000 PUSH1 0x0 DUP3 ADD MSTORE POP JUMP JUMPDEST PUSH1 0x0 PUSH2 0x206C PUSH1 0x18 DUP4 PUSH2 0x1B78 JUMP JUMPDEST SWAP2 POP PUSH2 0x2077 DUP3 PUSH2 0x2036 JUMP JUMPDEST PUSH1 0x20 DUP3 ADD SWAP1 POP SWAP2 SWAP1 POP JUMP JUMPDEST PUSH1 0x0 PUSH1 0x20 DUP3 ADD SWAP1 POP DUP2 DUP2 SUB PUSH1 0x0 DUP4 ADD MSTORE PUSH2 0x209B DUP2 PUSH2 0x205F JUMP JUMPDEST SWAP1 POP SWAP2 SWAP1 POP JUMP JUMPDEST PUSH32 0x45544820726573657276657320776173206E6F7420302E000000000000000000 PUSH1 0x0 DUP3 ADD MSTORE POP JUMP JUMPDEST PUSH1 0x0 PUSH2 0x20D8 PUSH1 0x17 DUP4 PUSH2 0x1B78 JUMP JUMPDEST SWAP2 POP PUSH2 0x20E3 DUP3 PUSH2 0x20A2 JUMP JUMPDEST PUSH1 0x20 DUP3 ADD SWAP1 POP SWAP2 SWAP1 POP JUMP JUMPDEST PUSH1 0x0 PUSH1 0x20 DUP3 ADD SWAP1 POP DUP2 DUP2 SUB PUSH1 0x0 DUP4 ADD MSTORE PUSH2 0x2107 DUP2 PUSH2 0x20CB JUMP JUMPDEST SWAP1 POP SWAP2 SWAP1 POP JUMP JUMPDEST PUSH32 0x4E6565642065746820746F2063726561746520706F6F6C2E0000000000000000 PUSH1 0x0 DUP3 ADD MSTORE POP JUMP JUMPDEST PUSH1 0x0 PUSH2 0x2144 PUSH1 0x18 DUP4 PUSH2 0x1B78 JUMP JUMPDEST SWAP2 POP PUSH2 0x214F DUP3 PUSH2 0x210E JUMP JUMPDEST PUSH1 0x20 DUP3 ADD SWAP1 POP SWAP2 SWAP1 POP JUMP JUMPDEST PUSH1 0x0 PUSH1 0x20 DUP3 ADD SWAP1 POP DUP2 DUP2 SUB PUSH1 0x0 DUP4 ADD MSTORE PUSH2 0x2173 DUP2 PUSH2 0x2137 JUMP JUMPDEST SWAP1 POP SWAP2 SWAP1 POP JUMP JUMPDEST PUSH1 0x0 DUP2 MLOAD SWAP1 POP PUSH2 0x2189 DUP2 PUSH2 0x1994 JUMP JUMPDEST SWAP3 SWAP2 POP POP JUMP JUMPDEST PUSH1 0x0 PUSH1 0x20 DUP3 DUP5 SUB SLT ISZERO PUSH2 0x21A5 JUMPI PUSH2 0x21A4 PUSH2 0x1985 JUMP JUMPDEST JUMPDEST PUSH1 0x0 PUSH2 0x21B3 DUP5 DUP3 DUP6 ADD PUSH2 0x217A JUMP JUMPDEST SWAP2 POP POP SWAP3 SWAP2 POP POP JUMP JUMPDEST PUSH32 0x4E6F74206861766520656E6F75676820746F6B656E7320746F20637265617465 PUSH1 0x0 DUP3 ADD MSTORE PUSH32 0x2074686520706F6F6C0000000000000000000000000000000000000000000000 PUSH1 0x20 DUP3 ADD MSTORE POP JUMP JUMPDEST PUSH1 0x0 PUSH2 0x2218 PUSH1 0x29 DUP4 PUSH2 0x1B78 JUMP JUMPDEST SWAP2 POP PUSH2 0x2223 DUP3 PUSH2 0x21BC JUMP JUMPDEST PUSH1 0x40 DUP3 ADD SWAP1 POP SWAP2 SWAP1 POP JUMP JUMPDEST PUSH1 0x0 PUSH1 0x20 DUP3 ADD SWAP1 POP DUP2 DUP2 SUB PUSH1 0x0 DUP4 ADD MSTORE PUSH2 0x2247 DUP2 PUSH2 0x220B JUMP JUMPDEST SWAP1 POP SWAP2 SWAP1 POP JUMP JUMPDEST PUSH32 0x4E65656420746F6B656E7320746F2063726561746520706F6F6C2E0000000000 PUSH1 0x0 DUP3 ADD MSTORE POP JUMP JUMPDEST PUSH1 0x0 PUSH2 0x2284 PUSH1 0x1B DUP4 PUSH2 0x1B78 JUMP JUMPDEST SWAP2 POP PUSH2 0x228F DUP3 PUSH2 0x224E JUMP JUMPDEST PUSH1 0x20 DUP3 ADD SWAP1 POP SWAP2 SWAP1 POP JUMP JUMPDEST PUSH1 0x0 PUSH1 0x20 DUP3 ADD SWAP1 POP DUP2 DUP2 SUB PUSH1 0x0 DUP4 ADD MSTORE PUSH2 0x22B3 DUP2 PUSH2 0x2277 JUMP JUMPDEST SWAP1 POP SWAP2 SWAP1 POP JUMP JUMPDEST PUSH1 0x0 PUSH1 0x60 DUP3 ADD SWAP1 POP PUSH2 0x22CF PUSH1 0x0 DUP4 ADD DUP7 PUSH2 0x1AB2 JUMP JUMPDEST PUSH2 0x22DC PUSH1 0x20 DUP4 ADD DUP6 PUSH2 0x1AB2 JUMP JUMPDEST PUSH2 0x22E9 PUSH1 0x40 DUP4 ADD DUP5 PUSH2 0x1ADC JUMP JUMPDEST SWAP5 SWAP4 POP POP POP POP JUMP JUMPDEST PUSH32 0x43616E2774207769746864726177206D6F726520455448207468616E20657869 PUSH1 0x0 DUP3 ADD MSTORE PUSH32 0x7374730000000000000000000000000000000000000000000000000000000000 PUSH1 0x20 DUP3 ADD MSTORE POP JUMP JUMPDEST PUSH1 0x0 PUSH2 0x234D PUSH1 0x23 DUP4 PUSH2 0x1B78 JUMP JUMPDEST SWAP2 POP PUSH2 0x2358 DUP3 PUSH2 0x22F1 JUMP JUMPDEST PUSH1 0x40 DUP3 ADD SWAP1 POP SWAP2 SWAP1 POP JUMP JUMPDEST PUSH1 0x0 PUSH1 0x20 DUP3 ADD SWAP1 POP DUP2 DUP2 SUB PUSH1 0x0 DUP4 ADD MSTORE PUSH2 0x237C DUP2 PUSH2 0x2340 JUMP JUMPDEST SWAP1 POP SWAP2 SWAP1 POP JUMP JUMPDEST PUSH32 0x6C657373207468616E206D696E2065786368616E676520726174650000000000 PUSH1 0x0 DUP3 ADD MSTORE POP JUMP JUMPDEST PUSH1 0x0 PUSH2 0x23B9 PUSH1 0x1B DUP4 PUSH2 0x1B78 JUMP JUMPDEST SWAP2 POP PUSH2 0x23C4 DUP3 PUSH2 0x2383 JUMP JUMPDEST PUSH1 0x20 DUP3 ADD SWAP1 POP SWAP2 SWAP1 POP JUMP JUMPDEST PUSH1 0x0 PUSH1 0x20 DUP3 ADD SWAP1 POP DUP2 DUP2 SUB PUSH1 0x0 DUP4 ADD MSTORE PUSH2 0x23E8 DUP2 PUSH2 0x23AC JUMP JUMPDEST SWAP1 POP SWAP2 SWAP1 POP JUMP JUMPDEST PUSH32 0x6D6F7265207468616E206D617820657868616E67652072617465000000000000 PUSH1 0x0 DUP3 ADD MSTORE POP JUMP JUMPDEST PUSH1 0x0 PUSH2 0x2425 PUSH1 0x1A DUP4 PUSH2 0x1B78 JUMP JUMPDEST SWAP2 POP PUSH2 0x2430 DUP3 PUSH2 0x23EF JUMP JUMPDEST PUSH1 0x20 DUP3 ADD SWAP1 POP SWAP2 SWAP1 POP JUMP JUMPDEST PUSH1 0x0 PUSH1 0x20 DUP3 ADD SWAP1 POP DUP2 DUP2 SUB PUSH1 0x0 DUP4 ADD MSTORE PUSH2 0x2454 DUP2 PUSH2 0x2418 JUMP JUMPDEST SWAP1 POP SWAP2 SWAP1 POP JUMP JUMPDEST PUSH32 0x4E6F7420656E6F75676820746F6B656E7320746F207769746864726177000000 PUSH1 0x0 DUP3 ADD MSTORE POP JUMP JUMPDEST PUSH1 0x0 PUSH2 0x2491 PUSH1 0x1D DUP4 PUSH2 0x1B78 JUMP JUMPDEST SWAP2 POP PUSH2 0x249C DUP3 PUSH2 0x245B JUMP JUMPDEST PUSH1 0x20 DUP3 ADD SWAP1 POP SWAP2 SWAP1 POP JUMP JUMPDEST PUSH1 0x0 PUSH1 0x20 DUP3 ADD SWAP1 POP DUP2 DUP2 SUB PUSH1 0x0 DUP4 ADD MSTORE PUSH2 0x24C0 DUP2 PUSH2 0x2484 JUMP JUMPDEST SWAP1 POP SWAP2 SWAP1 POP JUMP JUMPDEST PUSH1 0x0 DUP2 SWAP1 POP SWAP3 SWAP2 POP POP JUMP JUMPDEST POP JUMP JUMPDEST PUSH1 0x0 PUSH2 0x24E2 PUSH1 0x0 DUP4 PUSH2 0x24C7 JUMP JUMPDEST SWAP2 POP PUSH2 0x24ED DUP3 PUSH2 0x24D2 JUMP JUMPDEST PUSH1 0x0 DUP3 ADD SWAP1 POP SWAP2 SWAP1 POP JUMP JUMPDEST PUSH1 0x0 PUSH2 0x2503 DUP3 PUSH2 0x24D5 JUMP JUMPDEST SWAP2 POP DUP2 SWAP1 POP SWAP2 SWAP1 POP JUMP JUMPDEST PUSH32 0x4661696C656420746F2073656E64204574686572000000000000000000000000 PUSH1 0x0 DUP3 ADD MSTORE POP JUMP JUMPDEST PUSH1 0x0 PUSH2 0x2543 PUSH1 0x14 DUP4 PUSH2 0x1B78 JUMP JUMPDEST SWAP2 POP PUSH2 0x254E DUP3 PUSH2 0x250D JUMP JUMPDEST PUSH1 0x20 DUP3 ADD SWAP1 POP SWAP2 SWAP1 POP JUMP JUMPDEST PUSH1 0x0 PUSH1 0x20 DUP3 ADD SWAP1 POP DUP2 DUP2 SUB PUSH1 0x0 DUP4 ADD MSTORE PUSH2 0x2572 DUP2 PUSH2 0x2536 JUMP JUMPDEST SWAP1 POP SWAP2 SWAP1 POP JUMP JUMPDEST PUSH32 0x6D75737420616464206E6F6E7A65726F20616D6F756E74000000000000000000 PUSH1 0x0 DUP3 ADD MSTORE POP JUMP JUMPDEST PUSH1 0x0 PUSH2 0x25AF PUSH1 0x17 DUP4 PUSH2 0x1B78 JUMP JUMPDEST SWAP2 POP PUSH2 0x25BA DUP3 PUSH2 0x2579 JUMP JUMPDEST PUSH1 0x20 DUP3 ADD SWAP1 POP SWAP2 SWAP1 POP JUMP JUMPDEST PUSH1 0x0 PUSH1 0x20 DUP3 ADD SWAP1 POP DUP2 DUP2 SUB PUSH1 0x0 DUP4 ADD MSTORE PUSH2 0x25DE DUP2 PUSH2 0x25A2 JUMP JUMPDEST SWAP1 POP SWAP2 SWAP1 POP JUMP JUMPDEST PUSH32 0x5573657220646F65736E2774206861766520656E6F75676820746F6B656E7300 PUSH1 0x0 DUP3 ADD MSTORE POP JUMP JUMPDEST PUSH1 0x0 PUSH2 0x261B PUSH1 0x1F DUP4 PUSH2 0x1B78 JUMP JUMPDEST SWAP2 POP PUSH2 0x2626 DUP3 PUSH2 0x25E5 JUMP JUMPDEST PUSH1 0x20 DUP3 ADD SWAP1 POP SWAP2 SWAP1 POP JUMP JUMPDEST PUSH1 0x0 PUSH1 0x20 DUP3 ADD SWAP1 POP DUP2 DUP2 SUB PUSH1 0x0 DUP4 ADD MSTORE PUSH2 0x264A DUP2 PUSH2 0x260E JUMP JUMPDEST SWAP1 POP SWAP2 SWAP1 POP JUMP JUMPDEST PUSH32 0x73656E64657220646F65736E277420686176652073756666696369656E742074 PUSH1 0x0 DUP3 ADD MSTORE PUSH32 0x6F6B656E73000000000000000000000000000000000000000000000000000000 PUSH1 0x20 DUP3 ADD MSTORE POP JUMP JUMPDEST PUSH1 0x0 PUSH2 0x26AD PUSH1 0x25 DUP4 PUSH2 0x1B78 JUMP JUMPDEST SWAP2 POP PUSH2 0x26B8 DUP3 PUSH2 0x2651 JUMP JUMPDEST PUSH1 0x40 DUP3 ADD SWAP1 POP SWAP2 SWAP1 POP JUMP JUMPDEST PUSH1 0x0 PUSH1 0x20 DUP3 ADD SWAP1 POP DUP2 DUP2 SUB PUSH1 0x0 DUP4 ADD MSTORE PUSH2 0x26DC DUP2 PUSH2 0x26A0 JUMP JUMPDEST SWAP1 POP SWAP2 SWAP1 POP JUMP JUMPDEST PUSH32 0x6D6F7265207468616E206D61782065786368616E676520726174650000000000 PUSH1 0x0 DUP3 ADD MSTORE POP JUMP JUMPDEST PUSH1 0x0 PUSH2 0x2719 PUSH1 0x1B DUP4 PUSH2 0x1B78 JUMP JUMPDEST SWAP2 POP PUSH2 0x2724 DUP3 PUSH2 0x26E3 JUMP JUMPDEST PUSH1 0x20 DUP3 ADD SWAP1 POP SWAP2 SWAP1 POP JUMP JUMPDEST PUSH1 0x0 PUSH1 0x20 DUP3 ADD SWAP1 POP DUP2 DUP2 SUB PUSH1 0x0 DUP4 ADD MSTORE PUSH2 0x2748 DUP2 PUSH2 0x270C JUMP JUMPDEST SWAP1 POP SWAP2 SWAP1 POP JUMP JUMPDEST PUSH32 0x43616E27742067657420726964206F6620616C6C206574680000000000000000 PUSH1 0x0 DUP3 ADD MSTORE POP JUMP JUMPDEST PUSH1 0x0 PUSH2 0x2785 PUSH1 0x18 DUP4 PUSH2 0x1B78 JUMP JUMPDEST SWAP2 POP PUSH2 0x2790 DUP3 PUSH2 0x274F JUMP JUMPDEST PUSH1 0x20 DUP3 ADD SWAP1 POP SWAP2 SWAP1 POP JUMP JUMPDEST PUSH1 0x0 PUSH1 0x20 DUP3 ADD SWAP1 POP DUP2 DUP2 SUB PUSH1 0x0 DUP4 ADD MSTORE PUSH2 0x27B4 DUP2 PUSH2 0x2778 JUMP JUMPDEST SWAP1 POP SWAP2 SWAP1 POP JUMP JUMPDEST PUSH32 0x4F776E61626C653A206E6577206F776E657220697320746865207A65726F2061 PUSH1 0x0 DUP3 ADD MSTORE PUSH32 0x6464726573730000000000000000000000000000000000000000000000000000 PUSH1 0x20 DUP3 ADD MSTORE POP JUMP JUMPDEST PUSH1 0x0 PUSH2 0x2817 PUSH1 0x26 DUP4 PUSH2 0x1B78 JUMP JUMPDEST SWAP2 POP PUSH2 0x2822 DUP3 PUSH2 0x27BB JUMP JUMPDEST PUSH1 0x40 DUP3 ADD SWAP1 POP SWAP2 SWAP1 POP JUMP JUMPDEST PUSH1 0x0 PUSH1 0x20 DUP3 ADD SWAP1 POP DUP2 DUP2 SUB PUSH1 0x0 DUP4 ADD MSTORE PUSH2 0x2846 DUP2 PUSH2 0x280A JUMP JUMPDEST SWAP1 POP SWAP2 SWAP1 POP JUMP JUMPDEST PUSH32 0x4E487B7100000000000000000000000000000000000000000000000000000000 PUSH1 0x0 MSTORE PUSH1 0x22 PUSH1 0x4 MSTORE PUSH1 0x24 PUSH1 0x0 REVERT JUMPDEST PUSH1 0x0 PUSH1 0x2 DUP3 DIV SWAP1 POP PUSH1 0x1 DUP3 AND DUP1 PUSH2 0x2894 JUMPI PUSH1 0x7F DUP3 AND SWAP2 POP JUMPDEST PUSH1 0x20 DUP3 LT DUP2 SUB PUSH2 0x28A7 JUMPI PUSH2 0x28A6 PUSH2 0x284D JUMP JUMPDEST JUMPDEST POP SWAP2 SWAP1 POP JUMP JUMPDEST PUSH32 0x4F776E61626C653A2063616C6C6572206973206E6F7420746865206F776E6572 PUSH1 0x0 DUP3 ADD MSTORE POP JUMP JUMPDEST PUSH1 0x0 PUSH2 0x28E3 PUSH1 0x20 DUP4 PUSH2 0x1B78 JUMP JUMPDEST SWAP2 POP PUSH2 0x28EE DUP3 PUSH2 0x28AD JUMP JUMPDEST PUSH1 0x20 DUP3 ADD SWAP1 POP SWAP2 SWAP1 POP JUMP JUMPDEST PUSH1 0x0 PUSH1 0x20 DUP3 ADD SWAP1 POP DUP2 DUP2 SUB PUSH1 0x0 DUP4 ADD MSTORE PUSH2 0x2912 DUP2 PUSH2 0x28D6 JUMP JUMPDEST SWAP1 POP SWAP2 SWAP1 POP JUMP INVALID LOG2 PUSH5 0x6970667358 0x22 SLT KECCAK256 REVERT 0xA7 JUMPDEST 0xCA PUSH4 0xB6A23102 0xEF 0x5E GAS 0xBF SUB 0xD MUL 0xC0 DUP3 0xBA 0xE2 0x29 SWAP4 PUSH27 0x769C2278D8EA8DE29864736F6C6343000811003300000000000000 "},"methodIdentifiers":{"addLiquidity(uint256,uint256)":"9cd441da","createPool(uint256)":"8259e6a0","exchange_name()":"f694f7d1","getSwapFee()":"d4cadf68","owner()":"8da5cb5b","removeAllLiquidity(uint256,uint256)":"58ad6de4","removeLiquidity(uint256,uint256,uint256)":"857620e1","renounceOwnership()":"715018a6","swapETHForTokens(uint256)":"2eab2841","swapTokensForETH(uint256,uint256)":"a22280a6","token()":"fc0c546a","transferOwnership(address)":"f2fde38b"}}}}}